{
  "contractName": "Auction",
  "abi": [
    {
      "constant": true,
      "inputs": [],
      "name": "MAX_TITLE_LENGTH",
      "outputs": [
        {
          "name": "",
          "type": "uint8"
        }
      ],
      "payable": false,
      "stateMutability": "view",
      "type": "function"
    },
    {
      "constant": true,
      "inputs": [],
      "name": "MAX_DESCRIPTION_LENGTH",
      "outputs": [
        {
          "name": "",
          "type": "uint16"
        }
      ],
      "payable": false,
      "stateMutability": "view",
      "type": "function"
    },
    {
      "constant": true,
      "inputs": [],
      "name": "timestamp",
      "outputs": [
        {
          "name": "",
          "type": "uint256"
        }
      ],
      "payable": false,
      "stateMutability": "view",
      "type": "function"
    },
    {
      "inputs": [
        {
          "name": "_auctioner",
          "type": "address"
        },
        {
          "name": "_title",
          "type": "string"
        },
        {
          "name": "_description",
          "type": "string"
        },
        {
          "name": "_thumbnailURL",
          "type": "string"
        },
        {
          "name": "_startPrice",
          "type": "uint256"
        },
        {
          "name": "_timespan",
          "type": "uint256"
        }
      ],
      "payable": true,
      "stateMutability": "payable",
      "type": "constructor"
    },
    {
      "payable": true,
      "stateMutability": "payable",
      "type": "fallback"
    },
    {
      "anonymous": false,
      "inputs": [
        {
          "indexed": false,
          "name": "initiator",
          "type": "address"
        },
        {
          "indexed": false,
          "name": "timestamp",
          "type": "uint256"
        },
        {
          "indexed": false,
          "name": "span",
          "type": "uint256"
        }
      ],
      "name": "Start",
      "type": "event"
    },
    {
      "anonymous": false,
      "inputs": [
        {
          "indexed": false,
          "name": "winner",
          "type": "address"
        },
        {
          "indexed": false,
          "name": "timestamp",
          "type": "uint256"
        }
      ],
      "name": "End",
      "type": "event"
    },
    {
      "anonymous": false,
      "inputs": [
        {
          "indexed": false,
          "name": "bidder",
          "type": "address"
        },
        {
          "indexed": false,
          "name": "amount",
          "type": "uint256"
        }
      ],
      "name": "Bidding",
      "type": "event"
    },
    {
      "anonymous": false,
      "inputs": [
        {
          "indexed": false,
          "name": "bidder",
          "type": "address"
        },
        {
          "indexed": false,
          "name": "timestamp",
          "type": "uint256"
        }
      ],
      "name": "BidderAuthorized",
      "type": "event"
    },
    {
      "anonymous": false,
      "inputs": [
        {
          "indexed": false,
          "name": "timestamp",
          "type": "uint256"
        }
      ],
      "name": "Terminated",
      "type": "event"
    },
    {
      "anonymous": false,
      "inputs": [
        {
          "indexed": false,
          "name": "timestamp",
          "type": "uint256"
        }
      ],
      "name": "Locked",
      "type": "event"
    },
    {
      "anonymous": false,
      "inputs": [],
      "name": "Unlocked",
      "type": "event"
    },
    {
      "anonymous": false,
      "inputs": [
        {
          "indexed": false,
          "name": "initiator",
          "type": "address"
        },
        {
          "indexed": false,
          "name": "timestamp",
          "type": "uint256"
        },
        {
          "indexed": false,
          "name": "span",
          "type": "uint8"
        }
      ],
      "name": "Start",
      "type": "event"
    },
    {
      "constant": false,
      "inputs": [],
      "name": "bid",
      "outputs": [],
      "payable": true,
      "stateMutability": "payable",
      "type": "function"
    },
    {
      "constant": false,
      "inputs": [],
      "name": "terminate",
      "outputs": [],
      "payable": false,
      "stateMutability": "nonpayable",
      "type": "function"
    },
    {
      "constant": false,
      "inputs": [
        {
          "name": "_addr",
          "type": "address"
        },
        {
          "name": "_secret",
          "type": "string"
        }
      ],
      "name": "allowBidder",
      "outputs": [],
      "payable": false,
      "stateMutability": "nonpayable",
      "type": "function"
    },
    {
      "constant": false,
      "inputs": [
        {
          "name": "_secret",
          "type": "string"
        }
      ],
      "name": "withdrawBid",
      "outputs": [],
      "payable": false,
      "stateMutability": "nonpayable",
      "type": "function"
    },
    {
      "constant": false,
      "inputs": [
        {
          "name": "_secret",
          "type": "string"
        }
      ],
      "name": "withdrawWinningBid",
      "outputs": [],
      "payable": false,
      "stateMutability": "nonpayable",
      "type": "function"
    },
    {
      "constant": true,
      "inputs": [],
      "name": "getMaxBidderAddress",
      "outputs": [
        {
          "name": "",
          "type": "address"
        }
      ],
      "payable": false,
      "stateMutability": "view",
      "type": "function"
    },
    {
      "constant": true,
      "inputs": [],
      "name": "getMaximumBid",
      "outputs": [
        {
          "name": "",
          "type": "uint256"
        }
      ],
      "payable": false,
      "stateMutability": "view",
      "type": "function"
    },
    {
      "constant": true,
      "inputs": [],
      "name": "getRemainingTime",
      "outputs": [
        {
          "name": "",
          "type": "uint256"
        }
      ],
      "payable": false,
      "stateMutability": "view",
      "type": "function"
    },
    {
      "constant": true,
      "inputs": [
        {
          "name": "_addr",
          "type": "address"
        }
      ],
      "name": "isAuthorizedBidder",
      "outputs": [
        {
          "name": "",
          "type": "bool"
        }
      ],
      "payable": false,
      "stateMutability": "view",
      "type": "function"
    },
    {
      "constant": true,
      "inputs": [],
      "name": "getLifespan",
      "outputs": [
        {
          "name": "",
          "type": "uint256"
        }
      ],
      "payable": false,
      "stateMutability": "view",
      "type": "function"
    },
    {
      "constant": true,
      "inputs": [],
      "name": "hasEnded",
      "outputs": [
        {
          "name": "",
          "type": "bool"
        }
      ],
      "payable": false,
      "stateMutability": "view",
      "type": "function"
    },
    {
      "constant": true,
      "inputs": [],
      "name": "isTerminated",
      "outputs": [
        {
          "name": "",
          "type": "bool"
        }
      ],
      "payable": false,
      "stateMutability": "view",
      "type": "function"
    },
    {
      "constant": true,
      "inputs": [],
      "name": "getItemName",
      "outputs": [
        {
          "name": "",
          "type": "string"
        }
      ],
      "payable": false,
      "stateMutability": "view",
      "type": "function"
    },
    {
      "constant": true,
      "inputs": [],
      "name": "getDescription",
      "outputs": [
        {
          "name": "",
          "type": "string"
        }
      ],
      "payable": false,
      "stateMutability": "view",
      "type": "function"
    },
    {
      "constant": true,
      "inputs": [],
      "name": "getPrice",
      "outputs": [
        {
          "name": "",
          "type": "uint256"
        }
      ],
      "payable": false,
      "stateMutability": "view",
      "type": "function"
    },
    {
      "constant": true,
      "inputs": [],
      "name": "getHighestBid",
      "outputs": [
        {
          "name": "",
          "type": "uint256"
        }
      ],
      "payable": false,
      "stateMutability": "view",
      "type": "function"
    },
    {
      "constant": true,
      "inputs": [],
      "name": "getThumbnailURL",
      "outputs": [
        {
          "name": "",
          "type": "string"
        }
      ],
      "payable": false,
      "stateMutability": "view",
      "type": "function"
    }
  ],
  "bytecode": "0x60606040526000600b60006101000a81548160ff0219169083151502179055506000600b60016101000a81548160ff021916908315150217905550604051620019673803806200196783398101604052808051906020019091908051820191906020018051820191906020018051820191906020018051906020019091908051906020019091905050603260ff1685511015156200009c57600080fd5b61040061ffff168451101515620000b257600080fd5b813410151515620000c257600080fd5b66038d7ea4c680008210151515620000d957600080fd5b6001811480620000e95750600381145b80620000f55750600781145b15156200010157600080fd5b7f9bd12ff361235cfc00ce4754dc56d7091bb0a6a4db278a4e8b2f23d84a14c5d4334283604051808473ffffffffffffffffffffffffffffffffffffffff1673ffffffffffffffffffffffffffffffffffffffff168152602001838152602001828152602001935050505060405180910390a184600460000190805190602001906200018f9291906200024e565b508360046001019080519060200190620001ab9291906200024e565b50816004600301819055508260046002019080519060200190620001d19291906200024e565b50856000806101000a81548173ffffffffffffffffffffffffffffffffffffffff021916908373ffffffffffffffffffffffffffffffffffffffff16021790555042600a81905550610e10601882020260088190555080600960006101000a81548160ff021916908360ff160217905550505050505050620002fd565b828054600181600116156101000203166002900490600052602060002090601f016020900481019282601f106200029157805160ff1916838001178555620002c2565b82800160010185558215620002c2579182015b82811115620002c1578251825591602001919060010190620002a4565b5b509050620002d19190620002d5565b5090565b620002fa91905b80821115620002f6576000816000905550600101620002dc565b5090565b90565b61165a806200030d6000396000f300606060405260043610610112576000357c0100000000000000000000000000000000000000000000000000000000900463ffffffff16806301671ac5146101145780630c08bf88146101a25780630e8d36b8146101b75780631998aeef146102335780631a0925411461023d5780632ef9a160146102cb57806340e19c1f146102fa5780634979440a146103235780639201ea0a1461034c57806398d5fdca1461037d5780639e25249e146103a6578063b40567e914610403578063b80777ea14610458578063c819d85a14610481578063d1cc99761461050f578063dd06ba1a1461053c578063e9d0ea8514610565578063ecb70fb7146105c2578063efb98bcf146105ef578063f5c04b8a14610618575b005b341561011f57600080fd5b610127610669565b6040518080602001828103825283818151815260200191508051906020019080838360005b8381101561016757808201518184015260208101905061014c565b50505050905090810190601f1680156101945780820380516001836020036101000a031916815260200191505b509250505060405180910390f35b34156101ad57600080fd5b6101b5610714565b005b34156101c257600080fd5b610231600480803573ffffffffffffffffffffffffffffffffffffffff1690602001909190803590602001908201803590602001908080601f016020809104026020016040519081016040528093929190818152602001838380828437820191505050505050919050506108a6565b005b61023b610b49565b005b341561024857600080fd5b610250610dcd565b6040518080602001828103825283818151815260200191508051906020019080838360005b83811015610290578082015181840152602081019050610275565b50505050905090810190601f1680156102bd5780820380516001836020036101000a031916815260200191505b509250505060405180910390f35b34156102d657600080fd5b6102de610e78565b604051808260ff1660ff16815260200191505060405180910390f35b341561030557600080fd5b61030d610e7d565b6040518082815260200191505060405180910390f35b341561032e57600080fd5b610336610e87565b6040518082815260200191505060405180910390f35b341561035757600080fd5b61035f610e91565b604051808261ffff1661ffff16815260200191505060405180910390f35b341561038857600080fd5b610390610e97565b6040518082815260200191505060405180910390f35b34156103b157600080fd5b610401600480803590602001908201803590602001908080601f01602080910402602001604051908101604052809392919081815260200183838082843782019150505050505091905050610ea4565b005b341561040e57600080fd5b6104166111c4565b604051808273ffffffffffffffffffffffffffffffffffffffff1673ffffffffffffffffffffffffffffffffffffffff16815260200191505060405180910390f35b341561046357600080fd5b61046b61124b565b6040518082815260200191505060405180910390f35b341561048c57600080fd5b610494611251565b6040518080602001828103825283818151815260200191508051906020019080838360005b838110156104d45780820151818401526020810190506104b9565b50505050905090810190601f1680156105015780820380516001836020036101000a031916815260200191505b509250505060405180910390f35b341561051a57600080fd5b6105226112fc565b604051808215151515815260200191505060405180910390f35b341561054757600080fd5b61054f611313565b6040518082815260200191505060405180910390f35b341561057057600080fd5b6105c0600480803590602001908201803590602001908080601f0160208091040260200160405190810160405280939291908181526020018383808284378201915050505050509190505061131d565b005b34156105cd57600080fd5b6105d5611574565b604051808215151515815260200191505060405180910390f35b34156105fa57600080fd5b610602611585565b6040518082815260200191505060405180910390f35b341561062357600080fd5b61064f600480803573ffffffffffffffffffffffffffffffffffffffff169060200190919050506115c4565b604051808215151515815260200191505060405180910390f35b61067161161a565b60046002018054600181600116156101000203166002900480601f01602080910402602001604051908101604052809291908181526020018280546001816001161561010002031660029004801561070a5780601f106106df5761010080835404028352916020019161070a565b820191906000526020600020905b8154815290600101906020018083116106ed57829003601f168201915b5050505050905090565b600b60029054906101000a900473ffffffffffffffffffffffffffffffffffffffff1673ffffffffffffffffffffffffffffffffffffffff163373ffffffffffffffffffffffffffffffffffffffff16141515610770576108a4565b600b60009054906101000a900460ff1615151561078957fe5b7f9a9cad27a1bdce3d7cb0602aaf727dfaad03ba6524d9bca7b9615867fa6802b4426040518082815260200191505060405180910390a16001600b60006101000a81548160ff02191690831515021790555066038d7ea4c680003073ffffffffffffffffffffffffffffffffffffffff1631101561083b576000809054906101000a900473ffffffffffffffffffffffffffffffffffffffff1673ffffffffffffffffffffffffffffffffffffffff16ff5b6000809054906101000a900473ffffffffffffffffffffffffffffffffffffffff1673ffffffffffffffffffffffffffffffffffffffff166108fc66038d7ea4c680009081150290604051600060405180830381858888f1935050505015156108a357600080fd5b5b565b600b60009054906101000a900460ff161515156108bf57fe5b8173ffffffffffffffffffffffffffffffffffffffff163373ffffffffffffffffffffffffffffffffffffffff161415156108f957600080fd5b600160008373ffffffffffffffffffffffffffffffffffffffff1673ffffffffffffffffffffffffffffffffffffffff16815260200190815260200160002060009054906101000a900460ff1615151561095257600080fd5b600b60019054906101000a900460ff1615151561096b57fe5b7f5c6cda0db1b391b2f72756fa710af4618c4e2535eec866ab7e757b78dfadf3818242604051808373ffffffffffffffffffffffffffffffffffffffff1673ffffffffffffffffffffffffffffffffffffffff1681526020018281526020019250505060405180910390a160018060008473ffffffffffffffffffffffffffffffffffffffff1673ffffffffffffffffffffffffffffffffffffffff16815260200190815260200160002060006101000a81548160ff0219169083151502179055506002816000604051602001526040518082805190602001908083835b602083101515610a6e5780518252602082019150602081019050602083039250610a49565b6001836020036101000a03801982511681845116808217855250505050505090500191505060206040518083038160008661646e5a03f11515610ab057600080fd5b505060405180519050600360008473ffffffffffffffffffffffffffffffffffffffff1673ffffffffffffffffffffffffffffffffffffffff16815260200190815260200160002081600019169055506000600260008473ffffffffffffffffffffffffffffffffffffffff1673ffffffffffffffffffffffffffffffffffffffff168152602001908152602001600020819055505050565b600080600b60009054906101000a900460ff16151515610b6557fe5b600034111515610b7457600080fd5b600d5434111515610b8457600080fd5b60046003015434111515610b9757600080fd5b600260003373ffffffffffffffffffffffffffffffffffffffff1673ffffffffffffffffffffffffffffffffffffffff1681526020019081526020016000205434600260003373ffffffffffffffffffffffffffffffffffffffff1673ffffffffffffffffffffffffffffffffffffffff1681526020019081526020016000205401111515610c2557600080fd5b600160003373ffffffffffffffffffffffffffffffffffffffff1673ffffffffffffffffffffffffffffffffffffffff16815260200190815260200160002060009054906101000a900460ff161515610c7a57fe5b610c82611574565b151515610c8b57fe5b7fcd8b2bc1831cfb063d9dfd4e5676b014e4f9d34756613a8e120013a9922403ab3334604051808373ffffffffffffffffffffffffffffffffffffffff1673ffffffffffffffffffffffffffffffffffffffff1681526020018281526020019250505060405180910390a1600260003373ffffffffffffffffffffffffffffffffffffffff1673ffffffffffffffffffffffffffffffffffffffff168152602001908152602001600020549150348201905080600260003373ffffffffffffffffffffffffffffffffffffffff1673ffffffffffffffffffffffffffffffffffffffff1681526020019081526020016000208190555080600d8190555033600c60006101000a81548173ffffffffffffffffffffffffffffffffffffffff021916908373ffffffffffffffffffffffffffffffffffffffff1602179055505050565b610dd561161a565b60046001018054600181600116156101000203166002900480601f016020809104026020016040519081016040528092919081815260200182805460018160011615610100020316600290048015610e6e5780601f10610e4357610100808354040283529160200191610e6e565b820191906000526020600020905b815481529060010190602001808311610e5157829003601f168201915b5050505050905090565b603281565b6000600854905090565b6000600d54905090565b61040081565b6000600460030154905090565b600081600160003373ffffffffffffffffffffffffffffffffffffffff1673ffffffffffffffffffffffffffffffffffffffff16815260200190815260200160002060009054906101000a900460ff161515610eff57600080fd5b600360003373ffffffffffffffffffffffffffffffffffffffff1673ffffffffffffffffffffffffffffffffffffffff16815260200190815260200160002054600019166002826000604051602001526040518082805190602001908083835b602083101515610f845780518252602082019150602081019050602083039250610f5f565b6001836020036101000a03801982511681845116808217855250505050505090500191505060206040518083038160008661646e5a03f11515610fc657600080fd5b50506040518051905060001916141515610fdf57600080fd5b600c60009054906101000a900473ffffffffffffffffffffffffffffffffffffffff1673ffffffffffffffffffffffffffffffffffffffff163373ffffffffffffffffffffffffffffffffffffffff161415151561103c57600080fd5b6000600260003373ffffffffffffffffffffffffffffffffffffffff1673ffffffffffffffffffffffffffffffffffffffff1681526020019081526020016000205411151561108a57600080fd5b600260003373ffffffffffffffffffffffffffffffffffffffff1673ffffffffffffffffffffffffffffffffffffffff1681526020019081526020016000205491506000600260003373ffffffffffffffffffffffffffffffffffffffff1673ffffffffffffffffffffffffffffffffffffffff16815260200190815260200160002081905550813073ffffffffffffffffffffffffffffffffffffffff16311015151561113457fe5b6000600260003373ffffffffffffffffffffffffffffffffffffffff1673ffffffffffffffffffffffffffffffffffffffff1681526020019081526020016000205414151561117f57fe5b3373ffffffffffffffffffffffffffffffffffffffff166108fc839081150290604051600060405180830381858888f1935050505015156111bf57600080fd5b505050565b6000600b60029054906101000a900473ffffffffffffffffffffffffffffffffffffffff1673ffffffffffffffffffffffffffffffffffffffff163373ffffffffffffffffffffffffffffffffffffffff1614151561122257611248565b600c60009054906101000a900473ffffffffffffffffffffffffffffffffffffffff1690505b90565b600a5481565b61125961161a565b60046000018054600181600116156101000203166002900480601f0160208091040260200160405190810160405280929190818152602001828054600181600116156101000203166002900480156112f25780601f106112c7576101008083540402835291602001916112f2565b820191906000526020600020905b8154815290600101906020018083116112d557829003601f168201915b5050505050905090565b6000600b60009054906101000a900460ff16905090565b6000600d54905090565b600b60029054906101000a900473ffffffffffffffffffffffffffffffffffffffff1673ffffffffffffffffffffffffffffffffffffffff163373ffffffffffffffffffffffffffffffffffffffff1614151561137957611571565b600b60009054906101000a900460ff1615151561139257fe5b61139a611574565b15156113a557600080fd5b600460030154600d541115156113ba57600080fd5b60036000600c60009054906101000a900473ffffffffffffffffffffffffffffffffffffffff1673ffffffffffffffffffffffffffffffffffffffff1673ffffffffffffffffffffffffffffffffffffffff16815260200190815260200160002054600019166002826000604051602001526040518082805190602001908083835b602083101515611461578051825260208201915060208101905060208303925061143c565b6001836020036101000a03801982511681845116808217855250505050505090500191505060206040518083038160008661646e5a03f115156114a357600080fd5b505060405180519050600019161415156114bc57600080fd5b600d543073ffffffffffffffffffffffffffffffffffffffff16311115156114e357600080fd5b7f7d7570b046e5ead3a4f3fbc9fa2445113625a1e79823776146316bafed6b8cc5600c60009054906101000a900473ffffffffffffffffffffffffffffffffffffffff1642604051808373ffffffffffffffffffffffffffffffffffffffff1673ffffffffffffffffffffffffffffffffffffffff1681526020018281526020019250505060405180910390a15b50565b600042600854600a54011115905090565b600080600b60009054906101000a900460ff161515156115a157fe5b6115a9611574565b1515156115b257fe5b600a5442036008540390508091505090565b6000600160008373ffffffffffffffffffffffffffffffffffffffff1673ffffffffffffffffffffffffffffffffffffffff16815260200190815260200160002060009054906101000a900460ff169050919050565b6020604051908101604052806000815250905600a165627a7a723058208e563af18e6688c4d4a5e6ebf0fb1e608e16c2a88456b58f7d3453b1d9eecaf70029",
  "source": "pragma solidity ^0.4.18;\r\n\r\n\r\nimport \"./interfaces/TimeLocked.sol\";\r\nimport \"./bases/HashLocked.sol\";\r\nimport \"./Auctioner.sol\";\r\n\r\n\r\n/// Auction smart contract is a contract which represents an auction\r\n/// for single or multiple items at once. It is a Temporary contract\r\n/// which means it has a lifespan. The larger the timespan, the bigger\r\n/// commission we get. If the Auction is terminated, the first one \r\n/// who gets paid is the auctioner (flat rate) users can withdraw\r\n/// their funds back and if that doesn't happen in period of a week\r\n/// all the funds go to the owner of the contract (the seller) and \r\n/// all users users are scrwd. \r\n/// @dev Temporary.sol\r\ncontract Auction is TimeLocked, HashLocked {\r\n\r\n    Auctioner private auctioner;\r\n\r\n    /// The auction starts \r\n    event Start(address initiator, uint256 timestamp, uint256 span);\r\n    event End(address winner, uint256 timestamp);\r\n    event Bidding(address bidder, uint256 amount);\r\n    event BidderAuthorized(address bidder, uint256 timestamp);\r\n    // The auction can be terminated and as such has to notify\r\n    event Terminated(uint256 timestamp);\r\n\r\n    modifier ownerOnly() {\r\n        if (msg.sender != owner) {\r\n            return;\r\n        }\r\n        _;\r\n    }\r\n\r\n    modifier authorizedBidderOnly(string _secret) {\r\n        require(bidders[msg.sender]);\r\n        require(sha256(_secret) == secrets[msg.sender]);\r\n        _;\r\n    }\r\n\r\n    modifier ifActive() {\r\n        assert(!terminated);\r\n        _;\r\n    }\r\n\r\n    /// The MaximumDescriptionLength you are allowed to have on an item\r\n    uint16 public constant MAX_DESCRIPTION_LENGTH = 1024;\r\n    /// The MaximumCharactersInYourTitle\r\n    uint8 public constant MAX_TITLE_LENGTH = 50;\r\n    /// The default flat comission charged on termination (around 0.001 ether or 0.6 USD A.T.M)\r\n    uint256 private constant DEFAULT_FLAT_COMISSION = 1000 szabo;\r\n\r\n    /// Authorized bidders\r\n    mapping ( address => bool ) private bidders;\r\n    \r\n    /// The actual bids ( amount )\r\n    mapping ( address => uint256 ) private bids;\r\n\r\n    /// Bidders' secret words (required for successfull change of item ownership);\r\n    /// After the auction ends the winning bidder sends his secret after receiving\r\n    /// the item, so the seller can withdraw his bid successfully\r\n    mapping ( address => bytes32) private secrets;\r\n\r\n    /// AuctionItem struct provides way to store different auction items\r\n    struct AuctionItem {\r\n\r\n        string itemName;\r\n        string description;\r\n        string thumbnailURL;\r\n\r\n        uint256 startPrice;\r\n\r\n    }\r\n\r\n    /// The actual item you are selling\r\n    AuctionItem private item;\r\n\r\n    /// The timespan of the contract (comission is based on this timespan)\r\n    uint256 private span;\r\n\r\n    /// The actual span in days\r\n    uint8 private spanInDays;\r\n\r\n    /// The time of creation\r\n    uint256 public timestamp;\r\n\r\n    /// Is the contract terminated\r\n    bool private terminated = false;\r\n    /// Is the auction finished\r\n    bool private finished = false;\r\n\r\n    /// The owner of the contract ( the seller )\r\n    address private owner;\r\n    \r\n    /// The address which the current maximum bid was sent from\r\n    address private currentMaxBidderAddress;\r\n\r\n    /// Current maximum bid\r\n    uint256 private maximumBid;\r\n\r\n    /// Auction constructor which initializes the contract\r\n    /// @param _auctioner - The auctioner contract that receives the comission\r\n    /// @param _title - The title/name of the item\r\n    /// @param _description - The description of the item you are selling\r\n    /// @param _thumbnailURL - The thumbnail of your offer\r\n    /// @param _startPrice - The initial price of your offer\r\n    /// @param _timespan - The time-span of your auction (1 day, 3 days, 7 days)\r\n    /// Upon auction creation you have to deposit a {_startPrice} amount in your\r\n    /// contract in case you terminate or have to pay comission (no money in the contract -> no comission)\r\n    /// The _startPrice cannot be less than the flat comission you are charged upon termination\r\n    function Auction(\r\n                    Auctioner _auctioner,\r\n                    string _title, \r\n                    string _description, \r\n                    string _thumbnailURL, \r\n                    uint256 _startPrice,\r\n                    uint256 _timespan\r\n                    )\r\n        public\r\n        payable\r\n    {\r\n        /// Setting the owner of the contract\r\n        require(bytes(_title).length < MAX_TITLE_LENGTH);\r\n        require(bytes(_description).length < MAX_DESCRIPTION_LENGTH);\r\n        require(msg.value >= _startPrice);\r\n        require(_startPrice >= DEFAULT_FLAT_COMISSION);\r\n        require(_timespan == 1 || _timespan == 3 || _timespan == 7);\r\n\r\n        Start(msg.sender, now, _timespan);\r\n\r\n        /// Populating the Auction item structure\r\n        item.itemName = _title;\r\n        item.description = _description;\r\n        item.startPrice = _startPrice;\r\n        item.thumbnailURL = _thumbnailURL;\r\n        \r\n        /// Defining the auctioneer (the comission is sent to the contract)\r\n        auctioner = _auctioner;\r\n        timestamp = now;\r\n        span = _timespan * 24 * 3600;\r\n        /// The conversion is safe because there is an assertion that ensures it above\r\n        spanInDays = uint8(_timespan);\r\n    }\r\n\r\n    /// If everything else fails (fallback)\r\n    function() public payable {}\r\n\r\n    /// The bid function is used for bids on the current Auction Contract Item\r\n    /// You can bids only if you are a registered bidder\r\n    /// Multiple assertions are made in order for the process to run smoothly without error\r\n    /// At the end an Event is Fired @dev event Bidding(address sender, uin256 value)\r\n    function bid() \r\n        public \r\n        payable\r\n        ifActive\r\n    {\r\n\r\n        require(msg.value > 0);\r\n        require(msg.value > maximumBid);\r\n        require(msg.value > item.startPrice);\r\n        require(bids[msg.sender] + msg.value > bids[msg.sender]);\r\n\r\n        assert(bidders[msg.sender]);\r\n        assert(!hasEnded());\r\n\r\n        Bidding(msg.sender, msg.value);\r\n    \r\n        uint256 oldBid = bids[msg.sender];\r\n        uint256 newBid = oldBid + msg.value;\r\n\r\n        bids[msg.sender] = newBid;\r\n        \r\n        maximumBid = newBid;\r\n        currentMaxBidderAddress = msg.sender;\r\n    }\r\n\r\n    /// Terminate initiates a time lock on the contract and the auctioner\r\n    /// receives an instant payment (flat rate) before anyone else.\r\n    /// No one can bid, they can only withdraw funds (if they have bids)\r\n    /// At the end of the termination period all funds go to the owner\r\n    function terminate() \r\n        public \r\n        ownerOnly \r\n    {  \r\n\r\n        assert(!terminated);\r\n        Terminated(now);\r\n\r\n        terminated = true;\r\n        if (this.balance < DEFAULT_FLAT_COMISSION) {\r\n            selfdestruct(auctioner);\r\n        } else {\r\n            auctioner.transfer(DEFAULT_FLAT_COMISSION);\r\n        }\r\n    }\r\n\r\n    function allowBidder(address _addr, string _secret) public ifActive {\r\n        require(msg.sender == _addr);\r\n        require(!bidders[_addr]);\r\n        assert(!finished);\r\n        \r\n        BidderAuthorized(_addr, now);\r\n\r\n        bidders[_addr] = true;\r\n        secrets[_addr] = sha256(_secret);\r\n        bids[_addr] = 0;\r\n    }\r\n\r\n    function withdrawBid(string _secret) public authorizedBidderOnly(_secret) {\r\n        require(msg.sender != currentMaxBidderAddress);\r\n        require(bids[msg.sender] > 0);\r\n        uint256 amountToSend = bids[msg.sender];\r\n        bids[msg.sender] = 0;\r\n        assert(this.balance >= amountToSend);\r\n        assert(bids[msg.sender] == 0);\r\n        msg.sender.transfer(amountToSend);\r\n    }\r\n\r\n    /// Withdrawing the winning bid using the users secret\r\n    function withdrawWinningBid(string _secret) public ownerOnly ifActive {\r\n\r\n        require(hasEnded());\r\n        require(maximumBid > item.startPrice);\r\n        require(sha256(_secret) == secrets[currentMaxBidderAddress]);\r\n        require(this.balance > maximumBid);\r\n\r\n        End(currentMaxBidderAddress, now);\r\n    \r\n        /// Make transfers\r\n\r\n    }\r\n\r\n    function getMaxBidderAddress() public view ownerOnly returns(address) {\r\n        return currentMaxBidderAddress;\r\n    }\r\n\r\n    function getMaximumBid() public view returns (uint256) {\r\n        return maximumBid;\r\n    }\r\n\r\n    function getRemainingTime() public view ifActive returns (uint256) {\r\n        assert(!hasEnded());\r\n        uint256 remainingTime = span - (now - timestamp);\r\n        return remainingTime;\r\n    }\r\n\r\n    function isAuthorizedBidder(address _addr) public view returns(bool) {\r\n        return bidders[_addr];\r\n    }\r\n\r\n    function getLifespan() public view returns (uint256) {\r\n        return span;\r\n    }\r\n\r\n    function hasEnded() public view returns (bool) {\r\n        return timestamp + span <= now;\r\n    }\r\n\r\n    function isTerminated() public view returns (bool) {\r\n        return terminated;\r\n    }\r\n\r\n    function getItemName() public view returns (string) {\r\n        return item.itemName;\r\n    }\r\n\r\n    function getDescription() public view returns (string) {\r\n        return item.description;\r\n    }\r\n \r\n    function getPrice() public view returns (uint256) {\r\n        return item.startPrice;\r\n    }\r\n\r\n    function getHighestBid() public view returns (uint256) {\r\n        return maximumBid;\r\n    }\r\n\r\n    function getThumbnailURL() public view returns (string) {\r\n        return item.thumbnailURL;\r\n    }\r\n\r\n}",
  "sourcePath": "C:\\Users\\G_ANGELOV\\Desktop\\Softuni\\blockchain-devcamp\\bogo-dapp-proj\\contracts\\Auction.sol",
  "compiler": {
    "name": "solc",
    "version": "0.4.19+commit.c4cbbb05.Emscripten.clang"
  },
  "schemaVersion": "1.0.1",
  "updatedAt": "2018-03-18T16:57:20.567Z"
}