{
  "contractName": "Auction",
  "abi": [
    {
      "constant": true,
      "inputs": [],
      "name": "MAX_TITLE_LENGTH",
      "outputs": [
        {
          "name": "",
          "type": "uint8"
        }
      ],
      "payable": false,
      "stateMutability": "view",
      "type": "function"
    },
    {
      "constant": true,
      "inputs": [],
      "name": "MINIMUM_SECRET_LENGTH",
      "outputs": [
        {
          "name": "",
          "type": "uint8"
        }
      ],
      "payable": false,
      "stateMutability": "view",
      "type": "function"
    },
    {
      "constant": true,
      "inputs": [],
      "name": "MAX_DESCRIPTION_LENGTH",
      "outputs": [
        {
          "name": "",
          "type": "uint16"
        }
      ],
      "payable": false,
      "stateMutability": "view",
      "type": "function"
    },
    {
      "constant": true,
      "inputs": [],
      "name": "selfdestructStart",
      "outputs": [
        {
          "name": "",
          "type": "uint256"
        }
      ],
      "payable": false,
      "stateMutability": "view",
      "type": "function"
    },
    {
      "constant": true,
      "inputs": [],
      "name": "timestamp",
      "outputs": [
        {
          "name": "",
          "type": "uint256"
        }
      ],
      "payable": false,
      "stateMutability": "view",
      "type": "function"
    },
    {
      "inputs": [
        {
          "name": "_auctioner",
          "type": "address"
        },
        {
          "name": "_title",
          "type": "string"
        },
        {
          "name": "_description",
          "type": "string"
        },
        {
          "name": "_thumbnailURL",
          "type": "string"
        },
        {
          "name": "_startPrice",
          "type": "uint256"
        },
        {
          "name": "_timespan",
          "type": "uint256"
        }
      ],
      "payable": true,
      "stateMutability": "payable",
      "type": "constructor"
    },
    {
      "payable": true,
      "stateMutability": "payable",
      "type": "fallback"
    },
    {
      "anonymous": false,
      "inputs": [
        {
          "indexed": false,
          "name": "initiator",
          "type": "address"
        },
        {
          "indexed": false,
          "name": "timestamp",
          "type": "uint256"
        },
        {
          "indexed": false,
          "name": "span",
          "type": "uint256"
        }
      ],
      "name": "Start",
      "type": "event"
    },
    {
      "anonymous": false,
      "inputs": [
        {
          "indexed": false,
          "name": "winner",
          "type": "address"
        },
        {
          "indexed": false,
          "name": "timestamp",
          "type": "uint256"
        }
      ],
      "name": "End",
      "type": "event"
    },
    {
      "anonymous": false,
      "inputs": [
        {
          "indexed": false,
          "name": "timestamp",
          "type": "uint256"
        }
      ],
      "name": "SelfdestructCountdown",
      "type": "event"
    },
    {
      "anonymous": false,
      "inputs": [
        {
          "indexed": false,
          "name": "bidder",
          "type": "address"
        },
        {
          "indexed": false,
          "name": "amount",
          "type": "uint256"
        }
      ],
      "name": "Bidding",
      "type": "event"
    },
    {
      "anonymous": false,
      "inputs": [
        {
          "indexed": false,
          "name": "bidder",
          "type": "address"
        },
        {
          "indexed": false,
          "name": "timestamp",
          "type": "uint256"
        }
      ],
      "name": "BidderAuthorized",
      "type": "event"
    },
    {
      "anonymous": false,
      "inputs": [
        {
          "indexed": false,
          "name": "timestamp",
          "type": "uint256"
        }
      ],
      "name": "Terminated",
      "type": "event"
    },
    {
      "anonymous": false,
      "inputs": [
        {
          "indexed": false,
          "name": "timestamp",
          "type": "uint256"
        }
      ],
      "name": "Locked",
      "type": "event"
    },
    {
      "anonymous": false,
      "inputs": [],
      "name": "Unlocked",
      "type": "event"
    },
    {
      "anonymous": false,
      "inputs": [
        {
          "indexed": false,
          "name": "initiator",
          "type": "address"
        },
        {
          "indexed": false,
          "name": "timestamp",
          "type": "uint256"
        },
        {
          "indexed": false,
          "name": "span",
          "type": "uint8"
        }
      ],
      "name": "Start",
      "type": "event"
    },
    {
      "constant": false,
      "inputs": [],
      "name": "bid",
      "outputs": [],
      "payable": true,
      "stateMutability": "payable",
      "type": "function"
    },
    {
      "constant": false,
      "inputs": [],
      "name": "terminate",
      "outputs": [],
      "payable": false,
      "stateMutability": "nonpayable",
      "type": "function"
    },
    {
      "constant": false,
      "inputs": [
        {
          "name": "_addr",
          "type": "address"
        },
        {
          "name": "_secret",
          "type": "string"
        }
      ],
      "name": "allowBidder",
      "outputs": [],
      "payable": false,
      "stateMutability": "nonpayable",
      "type": "function"
    },
    {
      "constant": false,
      "inputs": [
        {
          "name": "_secret",
          "type": "string"
        }
      ],
      "name": "withdrawBid",
      "outputs": [],
      "payable": false,
      "stateMutability": "nonpayable",
      "type": "function"
    },
    {
      "constant": false,
      "inputs": [
        {
          "name": "_secret",
          "type": "string"
        }
      ],
      "name": "withdrawWinningBid",
      "outputs": [],
      "payable": false,
      "stateMutability": "nonpayable",
      "type": "function"
    },
    {
      "constant": false,
      "inputs": [],
      "name": "forceEnding",
      "outputs": [],
      "payable": false,
      "stateMutability": "nonpayable",
      "type": "function"
    },
    {
      "constant": true,
      "inputs": [],
      "name": "isInactive",
      "outputs": [
        {
          "name": "",
          "type": "bool"
        }
      ],
      "payable": false,
      "stateMutability": "view",
      "type": "function"
    },
    {
      "constant": true,
      "inputs": [],
      "name": "getMaxBidderAddress",
      "outputs": [
        {
          "name": "",
          "type": "address"
        }
      ],
      "payable": false,
      "stateMutability": "view",
      "type": "function"
    },
    {
      "constant": true,
      "inputs": [],
      "name": "getMaximumBid",
      "outputs": [
        {
          "name": "",
          "type": "uint256"
        }
      ],
      "payable": false,
      "stateMutability": "view",
      "type": "function"
    },
    {
      "constant": true,
      "inputs": [],
      "name": "getRemainingTime",
      "outputs": [
        {
          "name": "",
          "type": "uint256"
        }
      ],
      "payable": false,
      "stateMutability": "view",
      "type": "function"
    },
    {
      "constant": true,
      "inputs": [
        {
          "name": "_addr",
          "type": "address"
        }
      ],
      "name": "isAuthorizedBidder",
      "outputs": [
        {
          "name": "",
          "type": "bool"
        }
      ],
      "payable": false,
      "stateMutability": "view",
      "type": "function"
    },
    {
      "constant": true,
      "inputs": [],
      "name": "getLifespan",
      "outputs": [
        {
          "name": "",
          "type": "uint256"
        }
      ],
      "payable": false,
      "stateMutability": "view",
      "type": "function"
    },
    {
      "constant": false,
      "inputs": [],
      "name": "hasEnded",
      "outputs": [
        {
          "name": "",
          "type": "bool"
        }
      ],
      "payable": false,
      "stateMutability": "nonpayable",
      "type": "function"
    },
    {
      "constant": true,
      "inputs": [],
      "name": "isTerminated",
      "outputs": [
        {
          "name": "",
          "type": "bool"
        }
      ],
      "payable": false,
      "stateMutability": "view",
      "type": "function"
    },
    {
      "constant": true,
      "inputs": [],
      "name": "getItemName",
      "outputs": [
        {
          "name": "",
          "type": "string"
        }
      ],
      "payable": false,
      "stateMutability": "view",
      "type": "function"
    },
    {
      "constant": true,
      "inputs": [],
      "name": "getDescription",
      "outputs": [
        {
          "name": "",
          "type": "string"
        }
      ],
      "payable": false,
      "stateMutability": "view",
      "type": "function"
    },
    {
      "constant": true,
      "inputs": [],
      "name": "getPrice",
      "outputs": [
        {
          "name": "",
          "type": "uint256"
        }
      ],
      "payable": false,
      "stateMutability": "view",
      "type": "function"
    },
    {
      "constant": true,
      "inputs": [],
      "name": "getHighestBid",
      "outputs": [
        {
          "name": "",
          "type": "uint256"
        }
      ],
      "payable": false,
      "stateMutability": "view",
      "type": "function"
    },
    {
      "constant": true,
      "inputs": [],
      "name": "getThumbnailURL",
      "outputs": [
        {
          "name": "",
          "type": "string"
        }
      ],
      "payable": false,
      "stateMutability": "view",
      "type": "function"
    }
  ],
  "bytecode": "0x60606040526000600d60006101000a81548160ff0219169083151502179055506000600d60016101000a81548160ff0219169083151502179055506040516200205f3803806200205f83398101604052808051906020019091908051820191906020018051820191906020018051820191906020018051906020019091908051906020019091905050603260ff1685511015156200009c57600080fd5b61040061ffff168451101515620000b257600080fd5b813410151515620000c257600080fd5b66038d7ea4c680008210151515620000d957600080fd5b6001811480620000e95750600381145b80620000f55750600781145b15156200010157600080fd5b7f9bd12ff361235cfc00ce4754dc56d7091bb0a6a4db278a4e8b2f23d84a14c5d4334283604051808473ffffffffffffffffffffffffffffffffffffffff1673ffffffffffffffffffffffffffffffffffffffff168152602001838152602001828152602001935050505060405180910390a184600460000190805190602001906200018f92919062000296565b508360046001019080519060200190620001ab92919062000296565b50816004600301819055508260046002019080519060200190620001d192919062000296565b50856000806101000a81548173ffffffffffffffffffffffffffffffffffffffff021916908373ffffffffffffffffffffffffffffffffffffffff16021790555042600b81905550610e10601882020260088190555080600960006101000a81548160ff021916908360ff16021790555034600a8190555033600d60026101000a81548173ffffffffffffffffffffffffffffffffffffffff021916908373ffffffffffffffffffffffffffffffffffffffff16021790555050505050505062000345565b828054600181600116156101000203166002900490600052602060002090601f016020900481019282601f10620002d957805160ff19168380011785556200030a565b828001600101855582156200030a579182015b8281111562000309578251825591602001919060010190620002ec565b5b5090506200031991906200031d565b5090565b6200034291905b808211156200033e57600081600090555060010162000324565b5090565b90565b611d0a80620003556000396000f30060606040526004361061013e576000357c0100000000000000000000000000000000000000000000000000000000900463ffffffff16806301671ac5146101405780630c08bf88146101ce5780630e8d36b8146101e35780631998aeef1461025f5780631a092541146102695780632ef9a160146102f757806340e19c1f146103265780634979440a1461034f5780634c012e09146103785780635e829a02146103a75780639201ea0a146103d457806398d5fdca146104055780639e25249e1461042e578063b1734ae41461048b578063b40567e9146104a0578063b7004ea5146104f5578063b80777ea1461051e578063c819d85a14610547578063d1cc9976146105d5578063dd06ba1a14610602578063e9d0ea851461062b578063ecb70fb714610688578063efb98bcf146106b5578063f5c04b8a146106de575b005b341561014b57600080fd5b61015361072f565b6040518080602001828103825283818151815260200191508051906020019080838360005b83811015610193578082015181840152602081019050610178565b50505050905090810190601f1680156101c05780820380516001836020036101000a031916815260200191505b509250505060405180910390f35b34156101d957600080fd5b6101e16107da565b005b34156101ee57600080fd5b61025d600480803573ffffffffffffffffffffffffffffffffffffffff1690602001909190803590602001908201803590602001908080601f016020809104026020016040519081016040528093929190818152602001838380828437820191505050505050919050506109cb565b005b610267610d53565b005b341561027457600080fd5b61027c61104e565b6040518080602001828103825283818151815260200191508051906020019080838360005b838110156102bc5780820151818401526020810190506102a1565b50505050905090810190601f1680156102e95780820380516001836020036101000a031916815260200191505b509250505060405180910390f35b341561030257600080fd5b61030a6110f9565b604051808260ff1660ff16815260200191505060405180910390f35b341561033157600080fd5b6103396110fe565b6040518082815260200191505060405180910390f35b341561035a57600080fd5b610362611108565b6040518082815260200191505060405180910390f35b341561038357600080fd5b61038b611112565b604051808260ff1660ff16815260200191505060405180910390f35b34156103b257600080fd5b6103ba611117565b604051808215151515815260200191505060405180910390f35b34156103df57600080fd5b6103e7611145565b604051808261ffff1661ffff16815260200191505060405180910390f35b341561041057600080fd5b61041861114b565b6040518082815260200191505060405180910390f35b341561043957600080fd5b610489600480803590602001908201803590602001908080601f01602080910402602001604051908101604052809392919081815260200183838082843782019150505050505091905050611158565b005b341561049657600080fd5b61049e6114fe565b005b34156104ab57600080fd5b6104b3611564565b604051808273ffffffffffffffffffffffffffffffffffffffff1673ffffffffffffffffffffffffffffffffffffffff16815260200191505060405180910390f35b341561050057600080fd5b6105086115ea565b6040518082815260200191505060405180910390f35b341561052957600080fd5b6105316115f0565b6040518082815260200191505060405180910390f35b341561055257600080fd5b61055a6115f6565b6040518080602001828103825283818151815260200191508051906020019080838360005b8381101561059a57808201518184015260208101905061057f565b50505050905090810190601f1680156105c75780820380516001836020036101000a031916815260200191505b509250505060405180910390f35b34156105e057600080fd5b6105e86116a1565b604051808215151515815260200191505060405180910390f35b341561060d57600080fd5b6106156116b8565b6040518082815260200191505060405180910390f35b341561063657600080fd5b610686600480803590602001908201803590602001908080601f016020809104026020016040519081016040528093929190818152602001838380828437820191505050505050919050506116c2565b005b341561069357600080fd5b61069b611bd8565b604051808215151515815260200191505060405180910390f35b34156106c057600080fd5b6106c8611c4e565b6040518082815260200191505060405180910390f35b34156106e957600080fd5b610715600480803573ffffffffffffffffffffffffffffffffffffffff16906020019091905050611c74565b604051808215151515815260200191505060405180910390f35b610737611cca565b60046002018054600181600116156101000203166002900480601f0160208091040260200160405190810160405280929190818152602001828054600181600116156101000203166002900480156107d05780601f106107a5576101008083540402835291602001916107d0565b820191906000526020600020905b8154815290600101906020018083116107b357829003601f168201915b5050505050905090565b600d60029054906101000a900473ffffffffffffffffffffffffffffffffffffffff1673ffffffffffffffffffffffffffffffffffffffff163373ffffffffffffffffffffffffffffffffffffffff1614151561083657600080fd5b600d60009054906101000a900460ff1615151561084f57fe5b60001515600d60019054906101000a900460ff16151514151561087157600080fd5b7f9a9cad27a1bdce3d7cb0602aaf727dfaad03ba6524d9bca7b9615867fa6802b4426040518082815260200191505060405180910390a17f136189d3d26e61bff7949da08f46c6555cce2102eaa9422064de6bb24afae764426040518082815260200191505060405180910390a16001600d60006101000a81548160ff02191690831515021790555042600c8190555066038d7ea4c680003073ffffffffffffffffffffffffffffffffffffffff16311015610961576000809054906101000a900473ffffffffffffffffffffffffffffffffffffffff1673ffffffffffffffffffffffffffffffffffffffff16ff5b6000809054906101000a900473ffffffffffffffffffffffffffffffffffffffff1673ffffffffffffffffffffffffffffffffffffffff166108fc66038d7ea4c680009081150290604051600060405180830381858888f1935050505015156109c957600080fd5b565b600d60009054906101000a900460ff161515156109e457fe5b600d60019054906101000a900460ff1680610a0b5750600d60009054906101000a900460ff165b15610a5b574262093a80600c5401111515610a5a576000809054906101000a900473ffffffffffffffffffffffffffffffffffffffff1673ffffffffffffffffffffffffffffffffffffffff16ff5b5b8173ffffffffffffffffffffffffffffffffffffffff163373ffffffffffffffffffffffffffffffffffffffff16141515610a9557600080fd5b600d60029054906101000a900473ffffffffffffffffffffffffffffffffffffffff1673ffffffffffffffffffffffffffffffffffffffff168273ffffffffffffffffffffffffffffffffffffffff1614151515610af257600080fd5b600860ff16815110151515610b0657600080fd5b600d60019054906101000a900460ff16151515610b1f57fe5b600160008373ffffffffffffffffffffffffffffffffffffffff1673ffffffffffffffffffffffffffffffffffffffff16815260200190815260200160002060009054906101000a900460ff16151515610b7557fe5b7f5c6cda0db1b391b2f72756fa710af4618c4e2535eec866ab7e757b78dfadf3818242604051808373ffffffffffffffffffffffffffffffffffffffff1673ffffffffffffffffffffffffffffffffffffffff1681526020018281526020019250505060405180910390a160018060008473ffffffffffffffffffffffffffffffffffffffff1673ffffffffffffffffffffffffffffffffffffffff16815260200190815260200160002060006101000a81548160ff0219169083151502179055506002816000604051602001526040518082805190602001908083835b602083101515610c785780518252602082019150602081019050602083039250610c53565b6001836020036101000a03801982511681845116808217855250505050505090500191505060206040518083038160008661646e5a03f11515610cba57600080fd5b505060405180519050600360008473ffffffffffffffffffffffffffffffffffffffff1673ffffffffffffffffffffffffffffffffffffffff16815260200190815260200160002081600019169055506000600260008473ffffffffffffffffffffffffffffffffffffffff1673ffffffffffffffffffffffffffffffffffffffff168152602001908152602001600020819055505050565b600080600d60009054906101000a900460ff16151515610d6f57fe5b600d60019054906101000a900460ff1680610d965750600d60009054906101000a900460ff165b15610de6574262093a80600c5401111515610de5576000809054906101000a900473ffffffffffffffffffffffffffffffffffffffff1673ffffffffffffffffffffffffffffffffffffffff16ff5b5b600034111515610df557600080fd5b600f5434111515610e0557600080fd5b60046003015434111515610e1857600080fd5b600260003373ffffffffffffffffffffffffffffffffffffffff1673ffffffffffffffffffffffffffffffffffffffff1681526020019081526020016000205434600260003373ffffffffffffffffffffffffffffffffffffffff1673ffffffffffffffffffffffffffffffffffffffff1681526020019081526020016000205401111515610ea657600080fd5b600160003373ffffffffffffffffffffffffffffffffffffffff1673ffffffffffffffffffffffffffffffffffffffff16815260200190815260200160002060009054906101000a900460ff161515610efb57fe5b610f03611bd8565b151515610f0c57fe5b7fcd8b2bc1831cfb063d9dfd4e5676b014e4f9d34756613a8e120013a9922403ab3334604051808373ffffffffffffffffffffffffffffffffffffffff1673ffffffffffffffffffffffffffffffffffffffff1681526020018281526020019250505060405180910390a1600260003373ffffffffffffffffffffffffffffffffffffffff1673ffffffffffffffffffffffffffffffffffffffff168152602001908152602001600020549150348201905080600260003373ffffffffffffffffffffffffffffffffffffffff1673ffffffffffffffffffffffffffffffffffffffff1681526020019081526020016000208190555080600f8190555033600e60006101000a81548173ffffffffffffffffffffffffffffffffffffffff021916908373ffffffffffffffffffffffffffffffffffffffff1602179055505050565b611056611cca565b60046001018054600181600116156101000203166002900480601f0160208091040260200160405190810160405280929190818152602001828054600181600116156101000203166002900480156110ef5780601f106110c4576101008083540402835291602001916110ef565b820191906000526020600020905b8154815290600101906020018083116110d257829003601f168201915b5050505050905090565b603281565b6000600854905090565b6000600f54905090565b600881565b6000600d60009054906101000a900460ff16806111405750600d60019054906101000a900460ff165b905090565b61040081565b6000600460030154905090565b600081600360003373ffffffffffffffffffffffffffffffffffffffff1673ffffffffffffffffffffffffffffffffffffffff16815260200190815260200160002054600019166002826000604051602001526040518082805190602001908083835b6020831015156111e057805182526020820191506020810190506020830392506111bb565b6001836020036101000a03801982511681845116808217855250505050505090500191505060206040518083038160008661646e5a03f1151561122257600080fd5b5050604051805190506000191614151561123b57600080fd5b600160003373ffffffffffffffffffffffffffffffffffffffff1673ffffffffffffffffffffffffffffffffffffffff16815260200190815260200160002060009054906101000a900460ff16151561129057fe5b600d60019054906101000a900460ff16806112b75750600d60009054906101000a900460ff165b15611307574262093a80600c5401111515611306576000809054906101000a900473ffffffffffffffffffffffffffffffffffffffff1673ffffffffffffffffffffffffffffffffffffffff16ff5b5b600d60029054906101000a900473ffffffffffffffffffffffffffffffffffffffff1673ffffffffffffffffffffffffffffffffffffffff163373ffffffffffffffffffffffffffffffffffffffff161415151561136457600080fd5b600e60009054906101000a900473ffffffffffffffffffffffffffffffffffffffff1673ffffffffffffffffffffffffffffffffffffffff163373ffffffffffffffffffffffffffffffffffffffff16141515156113c157600080fd5b6000600260003373ffffffffffffffffffffffffffffffffffffffff1673ffffffffffffffffffffffffffffffffffffffff1681526020019081526020016000205411151561140f57600080fd5b813073ffffffffffffffffffffffffffffffffffffffff16311015151561143257fe5b600260003373ffffffffffffffffffffffffffffffffffffffff1673ffffffffffffffffffffffffffffffffffffffff1681526020019081526020016000205491506000600260003373ffffffffffffffffffffffffffffffffffffffff1673ffffffffffffffffffffffffffffffffffffffff168152602001908152602001600020819055503373ffffffffffffffffffffffffffffffffffffffff166108fc839081150290604051600060405180830381858888f1935050505015156114f957600080fd5b505050565b600d60029054906101000a900473ffffffffffffffffffffffffffffffffffffffff1673ffffffffffffffffffffffffffffffffffffffff163373ffffffffffffffffffffffffffffffffffffffff1614151561155a57600080fd5b6001600881905550565b6000600d60029054906101000a900473ffffffffffffffffffffffffffffffffffffffff1673ffffffffffffffffffffffffffffffffffffffff163373ffffffffffffffffffffffffffffffffffffffff161415156115c257600080fd5b600e60009054906101000a900473ffffffffffffffffffffffffffffffffffffffff16905090565b600c5481565b600b5481565b6115fe611cca565b60046000018054600181600116156101000203166002900480601f0160208091040260200160405190810160405280929190818152602001828054600181600116156101000203166002900480156116975780601f1061166c57610100808354040283529160200191611697565b820191906000526020600020905b81548152906001019060200180831161167a57829003601f168201915b5050505050905090565b6000600d60009054906101000a900460ff16905090565b6000600f54905090565b6000600d60029054906101000a900473ffffffffffffffffffffffffffffffffffffffff1673ffffffffffffffffffffffffffffffffffffffff163373ffffffffffffffffffffffffffffffffffffffff1614151561172057600080fd5b600d60009054906101000a900460ff1615151561173957fe5b600d60019054906101000a900460ff16806117605750600d60009054906101000a900460ff165b156117b0574262093a80600c54011115156117af576000809054906101000a900473ffffffffffffffffffffffffffffffffffffffff1673ffffffffffffffffffffffffffffffffffffffff16ff5b5b600860ff168251101515156117c457600080fd5b600460030154600f541115156117d957600080fd5b60036000600e60009054906101000a900473ffffffffffffffffffffffffffffffffffffffff1673ffffffffffffffffffffffffffffffffffffffff1673ffffffffffffffffffffffffffffffffffffffff16815260200190815260200160002054600019166002836000604051602001526040518082805190602001908083835b602083101515611880578051825260208201915060208101905060208303925061185b565b6001836020036101000a03801982511681845116808217855250505050505090500191505060206040518083038160008661646e5a03f115156118c257600080fd5b505060405180519050600019161415156118db57600080fd5b600460030154600f54013073ffffffffffffffffffffffffffffffffffffffff163111151561190957600080fd5b6000600f5460026000600e60009054906101000a900473ffffffffffffffffffffffffffffffffffffffff1673ffffffffffffffffffffffffffffffffffffffff1673ffffffffffffffffffffffffffffffffffffffff16815260200190815260200160002054031015151561197e57600080fd5b611986611bd8565b151561198e57fe5b7f7d7570b046e5ead3a4f3fbc9fa2445113625a1e79823776146316bafed6b8cc5600e60009054906101000a900473ffffffffffffffffffffffffffffffffffffffff1642604051808373ffffffffffffffffffffffffffffffffffffffff1673ffffffffffffffffffffffffffffffffffffffff1681526020018281526020019250505060405180910390a166038d7ea4c6800090506007600960009054906101000a900460ff1660ff161415611a59576064600f54600f02811515611a5157fe5b049050611a8a565b6003600960009054906101000a900460ff1660ff161415611a89576064600f54600a02811515611a8557fe5b0490505b5b6000809054906101000a900473ffffffffffffffffffffffffffffffffffffffff1673ffffffffffffffffffffffffffffffffffffffff166108fc829081150290604051600060405180830381858888f193505050501515611aeb57600080fd5b80600f60008282540392505081905550600f5460026000600e60009054906101000a900473ffffffffffffffffffffffffffffffffffffffff1673ffffffffffffffffffffffffffffffffffffffff1673ffffffffffffffffffffffffffffffffffffffff16815260200190815260200160002060008282540392505081905550600d60029054906101000a900473ffffffffffffffffffffffffffffffffffffffff1673ffffffffffffffffffffffffffffffffffffffff166108fc600a54600f54019081150290604051600060405180830381858888f193505050501515611bd457600080fd5b5050565b60008042600854600b5401111590508015611c47577f136189d3d26e61bff7949da08f46c6555cce2102eaa9422064de6bb24afae764426040518082815260200191505060405180910390a16001600d60016101000a81548160ff02191690831515021790555042600c819055505b8091505090565b600080611c59611bd8565b151515611c6257fe5b600b5442036008540390508091505090565b6000600160008373ffffffffffffffffffffffffffffffffffffffff1673ffffffffffffffffffffffffffffffffffffffff16815260200190815260200160002060009054906101000a900460ff169050919050565b6020604051908101604052806000815250905600a165627a7a72305820102bec85e36034e2efbac81b0ae939fb5b4866695e6007d1be7e4362c286c7690029",
  "source": "pragma solidity ^0.4.18;\r\n\r\n\r\nimport \"./interfaces/TimeLocked.sol\";\r\nimport \"./bases/HashLocked.sol\";\r\nimport \"./Auctioner.sol\";\r\n\r\n\r\n/// Auction smart contract is a contract which represents an auction\r\n/// for single or multiple items at once. It is a Temporary contract\r\n/// which means it has a lifespan. The larger the timespan, the bigger\r\n/// commission we get. If the Auction is terminated, the first one \r\n/// who gets paid is the auctioner (flat rate) users can withdraw\r\n/// their funds back and if that doesn't happen in period of a week\r\n/// all the funds go to the owner of the contract (the seller) and \r\n/// all users users are scrwd. \r\n/// @dev Temporary.sol\r\ncontract Auction is TimeLocked, HashLocked {\r\n\r\n    Auctioner private auctioner;\r\n\r\n    /// The auction starts \r\n    event Start(address initiator, uint256 timestamp, uint256 span);\r\n    event End(address winner, uint256 timestamp);\r\n    event SelfdestructCountdown(uint256 timestamp);\r\n    event Bidding(address bidder, uint256 amount);\r\n    event BidderAuthorized(address bidder, uint256 timestamp);\r\n    // The auction can be terminated and as such has to notify\r\n    event Terminated(uint256 timestamp);\r\n\r\n    /// Only the owner is eligible to use the functions\r\n    modifier ownerOnly() {\r\n        require(msg.sender == owner);\r\n        _;\r\n    }\r\n\r\n    /// Allows only authorized bidders to access the function\r\n    modifier authorizedBidderOnly(string _secret) {\r\n        require(sha256(_secret) == secrets[msg.sender]);\r\n        assert(bidders[msg.sender]);\r\n        _;\r\n    }\r\n    \r\n    /// Checks whether the auction is not terminated\r\n    modifier ifActive() {\r\n        assert(!terminated);\r\n        _;\r\n    }\r\n\r\n    /// This modifier checks if the auction was eihter terminated or has finished\r\n    /// If it was terminated/has ended it should selfdestruct after a period of 7 days\r\n    /// This 7 days period is given to the bidders as a time limit to withdraw their bids (not the winner)\r\n    modifier selfdestructCountdown() {\r\n        if (finished || terminated) {\r\n            if (selfdestructStart + 7 days <= now) {\r\n                selfdestruct(auctioner);\r\n            }\r\n        }\r\n        _;\r\n    }\r\n\r\n    /// The MaximumDescriptionLength you are allowed to have on an item\r\n    uint16 public constant MAX_DESCRIPTION_LENGTH = 1024;\r\n    /// The MaximumCharactersInYourTitle\r\n    uint8 public constant MAX_TITLE_LENGTH = 50;\r\n    /// The default flat comission charged on termination (around 0.001 ether or 0.6 USD A.T.M)\r\n    uint256 private constant DEFAULT_FLAT_COMISSION = 1000 szabo;\r\n    /// The minimum length of the secret you must provide (8 characters)\r\n    uint8 public constant MINIMUM_SECRET_LENGTH = 8;\r\n\r\n    /// Authorized bidders\r\n    mapping ( address => bool ) private bidders;\r\n    \r\n    /// The actual bids ( amount )\r\n    mapping ( address => uint256 ) private bids;\r\n\r\n    /// Bidders' secret words (required for successfull change of item ownership);\r\n    /// After the auction ends the winning bidder sends his secret after receiving\r\n    /// the item, so the seller can withdraw his bid successfully\r\n    mapping ( address => bytes32) private secrets;\r\n\r\n    /// AuctionItem struct provides way to store different auction items\r\n    struct AuctionItem {\r\n\r\n        string itemName;\r\n        string description;\r\n        string thumbnailURL;\r\n\r\n        uint256 startPrice;\r\n\r\n    }\r\n\r\n    /// The actual item you are selling\r\n    AuctionItem private item;\r\n\r\n    /// The timespan of the contract (comission is based on this timespan)\r\n    uint256 private span;\r\n\r\n    /// The actual span in days\r\n    uint8 private spanInDays;\r\n\r\n    /// Initial deposit\r\n    uint256 private initialDeposit;\r\n\r\n    /// The time of creation\r\n    uint256 public timestamp;\r\n\r\n    /// Selfdestruct start\r\n    uint256 public selfdestructStart;\r\n\r\n    /// Is the contract terminated\r\n    bool private terminated = false;\r\n    /// Is the auction finished\r\n    bool private finished = false;\r\n\r\n    /// The owner of the contract ( the seller )\r\n    address private owner;\r\n    \r\n    /// The address which the current maximum bid was sent from\r\n    address private currentMaxBidderAddress;\r\n\r\n    /// Current maximum bid\r\n    uint256 private maximumBid;\r\n\r\n    /// Auction constructor which initializes the contract\r\n    /// @param _auctioner - The auctioner contract that receives the comission\r\n    /// @param _title - The title/name of the item\r\n    /// @param _description - The description of the item you are selling\r\n    /// @param _thumbnailURL - The thumbnail of your offer\r\n    /// @param _startPrice - The initial price of your offer\r\n    /// @param _timespan - The time-span of your auction (1 day, 3 days, 7 days)\r\n    /// Upon auction creation you have to deposit a {_startPrice} amount in your\r\n    /// contract in case you terminate or have to pay comission (no money in the contract -> no comission)\r\n    /// The _startPrice cannot be less than the flat comission you are charged upon termination\r\n    function Auction(\r\n                    Auctioner _auctioner,\r\n                    string _title, \r\n                    string _description, \r\n                    string _thumbnailURL, \r\n                    uint256 _startPrice,\r\n                    uint256 _timespan\r\n                    )\r\n        public\r\n        payable\r\n    {\r\n        /// Setting the owner of the contract\r\n        require(bytes(_title).length < MAX_TITLE_LENGTH);\r\n        require(bytes(_description).length < MAX_DESCRIPTION_LENGTH);\r\n        require(msg.value >= _startPrice);\r\n        require(_startPrice >= DEFAULT_FLAT_COMISSION);\r\n        require(_timespan == 1 || _timespan == 3 || _timespan == 7);\r\n\r\n        Start(msg.sender, now, _timespan);\r\n\r\n        /// Populating the Auction item structure\r\n        item.itemName = _title;\r\n        item.description = _description;\r\n        item.startPrice = _startPrice;\r\n        item.thumbnailURL = _thumbnailURL;\r\n        \r\n        /// Defining the auctioneer (the comission is sent to the contract)\r\n        auctioner = _auctioner;\r\n        timestamp = now;\r\n        span = _timespan * 24 * 3600;\r\n        /// The conversion is safe because there is an assertion that ensures it above\r\n        spanInDays = uint8(_timespan);\r\n        initialDeposit = msg.value;\r\n        owner = msg.sender;\r\n    }\r\n\r\n    /// If everything else fails (fallback)\r\n    function() public payable {}\r\n\r\n    /// The bid function is used for bids on the current Auction Contract Item\r\n    /// You can bids only if you are a registered bidder\r\n    /// Multiple assertions are made in order for the process to run smoothly without error\r\n    /// At the end an Event is Fired @dev event Bidding(address sender, uin256 value)\r\n    function bid() \r\n        public \r\n        payable\r\n        ifActive\r\n        selfdestructCountdown()\r\n    {\r\n\r\n        require(msg.value > 0);\r\n        require(msg.value > maximumBid);\r\n        require(msg.value > item.startPrice);\r\n        require(bids[msg.sender] + msg.value > bids[msg.sender]);\r\n\r\n        assert(bidders[msg.sender]);\r\n        assert(!hasEnded());\r\n\r\n        Bidding(msg.sender, msg.value);\r\n    \r\n        uint256 oldBid = bids[msg.sender];\r\n        uint256 newBid = oldBid + msg.value;\r\n\r\n        bids[msg.sender] = newBid;\r\n        \r\n        maximumBid = newBid;\r\n        currentMaxBidderAddress = msg.sender;\r\n    }\r\n\r\n    /// Terminate initiates a time lock on the contract and the auctioner\r\n    /// receives an instant payment (flat rate) before anyone else.\r\n    /// No one can bid, they can only withdraw funds (if they have bids)\r\n    /// At the end of the termination period all funds go to the owner\r\n    function terminate() \r\n        public \r\n        ownerOnly\r\n        ifActive\r\n    {  \r\n\r\n        require(finished == false);\r\n\r\n        Terminated(now);\r\n        SelfdestructCountdown(now);\r\n\r\n        terminated = true;\r\n        selfdestructStart = now;\r\n\r\n        if (this.balance < DEFAULT_FLAT_COMISSION) {\r\n            selfdestruct(auctioner);\r\n        } else {\r\n            auctioner.transfer(DEFAULT_FLAT_COMISSION);\r\n        }\r\n    }\r\n\r\n    function allowBidder(address _addr, string _secret) public ifActive selfdestructCountdown() {\r\n        require(msg.sender == _addr);\r\n        require(_addr != owner);\r\n        require(bytes(_secret).length >= MINIMUM_SECRET_LENGTH);\r\n\r\n        assert(!finished);\r\n        assert(!bidders[_addr]);\r\n        \r\n        BidderAuthorized(_addr, now);\r\n\r\n        bidders[_addr] = true;\r\n        secrets[_addr] = sha256(_secret);\r\n        bids[_addr] = 0;\r\n    }\r\n\r\n    function withdrawBid(string _secret) public authorizedBidderOnly(_secret) selfdestructCountdown() {\r\n        require(msg.sender != owner);\r\n        require(msg.sender != currentMaxBidderAddress);\r\n        require(bids[msg.sender] > 0);\r\n        \r\n        assert(this.balance >= amountToSend);\r\n\r\n        uint256 amountToSend = bids[msg.sender];\r\n        bids[msg.sender] = 0;\r\n        msg.sender.transfer(amountToSend);\r\n    }\r\n\r\n    /// Withdrawing the winning bid using the users secret\r\n    function withdrawWinningBid(string _secret) public ownerOnly ifActive selfdestructCountdown() {\r\n\r\n        require(bytes(_secret).length >= MINIMUM_SECRET_LENGTH);\r\n        require(maximumBid > item.startPrice);\r\n        require(sha256(_secret) == secrets[currentMaxBidderAddress]);\r\n        require(this.balance > maximumBid + item.startPrice);\r\n        require(bids[currentMaxBidderAddress] - maximumBid >= 0);\r\n\r\n        assert(hasEnded());\r\n\r\n        End(currentMaxBidderAddress, now);\r\n\r\n        // Pay comission\r\n        uint256 comission = DEFAULT_FLAT_COMISSION;\r\n        if (spanInDays == 7) {\r\n            comission = (15 * maximumBid) / 100;\r\n        }else if (spanInDays == 3) {\r\n            comission = (10 * maximumBid) / 100;\r\n        }\r\n\r\n        auctioner.transfer(comission);\r\n        maximumBid -= comission;\r\n\r\n        /// Make transfers\r\n        bids[currentMaxBidderAddress] -= maximumBid;\r\n        owner.transfer(maximumBid + initialDeposit);\r\n    }\r\n\r\n    function forceEnding() public ownerOnly {\r\n        span = 1;\r\n    }\r\n\r\n    function isInactive() public view returns (bool) {\r\n        return terminated || finished;\r\n    }\r\n\r\n    function getMaxBidderAddress() public view ownerOnly returns(address) {\r\n        return currentMaxBidderAddress;\r\n    }\r\n\r\n    function getMaximumBid() public view returns (uint256) {\r\n        return maximumBid;\r\n    }\r\n\r\n    function getRemainingTime() public view returns (uint256) {\r\n\r\n        assert(!hasEnded());\r\n        uint256 remainingTime = span - (now - timestamp);\r\n        return remainingTime;\r\n\r\n    }\r\n\r\n    function isAuthorizedBidder(address _addr) public view returns(bool) {\r\n        return bidders[_addr];\r\n    }\r\n\r\n    function getLifespan() public view returns (uint256) {\r\n        return span;\r\n    }\r\n\r\n    function hasEnded() public returns (bool) {\r\n        bool ended = timestamp + span <= now;\r\n\r\n        if (ended) {\r\n\r\n            SelfdestructCountdown(now);\r\n            finished = true;\r\n            selfdestructStart = now;\r\n\r\n        }\r\n\r\n        return ended;\r\n    }\r\n\r\n    function isTerminated() public view returns (bool) {\r\n        return terminated;\r\n    }\r\n\r\n    function getItemName() public view returns (string) {\r\n        return item.itemName;\r\n    }\r\n\r\n    function getDescription() public view returns (string) {\r\n        return item.description;\r\n    }\r\n \r\n    function getPrice() public view returns (uint256) {\r\n        return item.startPrice;\r\n    }\r\n\r\n    function getHighestBid() public view returns (uint256) {\r\n        return maximumBid;\r\n    }\r\n\r\n    function getThumbnailURL() public view returns (string) {\r\n        return item.thumbnailURL;\r\n    }\r\n\r\n}",
  "sourcePath": "C:\\Users\\G_ANGELOV\\Desktop\\Softuni\\blockchain-devcamp\\bogo-dapp-proj\\contracts\\Auction.sol",
  "compiler": {
    "name": "solc",
    "version": "0.4.19+commit.c4cbbb05.Emscripten.clang"
  },
  "schemaVersion": "1.0.1",
  "updatedAt": "2018-03-19T17:41:25.906Z"
}