{
  "contractName": "Auction",
  "abi": [
    {
      "constant": true,
      "inputs": [],
      "name": "MAX_TITLE_LENGTH",
      "outputs": [
        {
          "name": "",
          "type": "uint8"
        }
      ],
      "payable": false,
      "stateMutability": "view",
      "type": "function"
    },
    {
      "constant": true,
      "inputs": [],
      "name": "MAX_DESCRIPTION_LENGTH",
      "outputs": [
        {
          "name": "",
          "type": "uint16"
        }
      ],
      "payable": false,
      "stateMutability": "view",
      "type": "function"
    },
    {
      "constant": true,
      "inputs": [],
      "name": "timestamp",
      "outputs": [
        {
          "name": "",
          "type": "uint256"
        }
      ],
      "payable": false,
      "stateMutability": "view",
      "type": "function"
    },
    {
      "inputs": [
        {
          "name": "_auctioner",
          "type": "address"
        },
        {
          "name": "_title",
          "type": "string"
        },
        {
          "name": "_description",
          "type": "string"
        },
        {
          "name": "_thumbnailURL",
          "type": "string"
        },
        {
          "name": "_startPrice",
          "type": "uint256"
        },
        {
          "name": "_timespan",
          "type": "uint8"
        }
      ],
      "payable": true,
      "stateMutability": "payable",
      "type": "constructor"
    },
    {
      "payable": true,
      "stateMutability": "payable",
      "type": "fallback"
    },
    {
      "anonymous": false,
      "inputs": [
        {
          "indexed": false,
          "name": "initiator",
          "type": "address"
        },
        {
          "indexed": false,
          "name": "timestamp",
          "type": "uint256"
        },
        {
          "indexed": false,
          "name": "span",
          "type": "uint8"
        }
      ],
      "name": "Start",
      "type": "event"
    },
    {
      "anonymous": false,
      "inputs": [
        {
          "indexed": false,
          "name": "winner",
          "type": "address"
        },
        {
          "indexed": false,
          "name": "timestamp",
          "type": "uint256"
        }
      ],
      "name": "End",
      "type": "event"
    },
    {
      "anonymous": false,
      "inputs": [
        {
          "indexed": false,
          "name": "bidder",
          "type": "address"
        },
        {
          "indexed": false,
          "name": "amount",
          "type": "uint256"
        }
      ],
      "name": "Bidding",
      "type": "event"
    },
    {
      "anonymous": false,
      "inputs": [
        {
          "indexed": false,
          "name": "timestamp",
          "type": "uint256"
        }
      ],
      "name": "Terminated",
      "type": "event"
    },
    {
      "anonymous": false,
      "inputs": [
        {
          "indexed": false,
          "name": "timestamp",
          "type": "uint256"
        }
      ],
      "name": "Locked",
      "type": "event"
    },
    {
      "anonymous": false,
      "inputs": [],
      "name": "Unlocked",
      "type": "event"
    },
    {
      "constant": false,
      "inputs": [],
      "name": "bid",
      "outputs": [],
      "payable": true,
      "stateMutability": "payable",
      "type": "function"
    },
    {
      "constant": false,
      "inputs": [],
      "name": "terminate",
      "outputs": [],
      "payable": false,
      "stateMutability": "nonpayable",
      "type": "function"
    },
    {
      "constant": false,
      "inputs": [
        {
          "name": "_addr",
          "type": "address"
        },
        {
          "name": "_secret",
          "type": "string"
        }
      ],
      "name": "allowBidder",
      "outputs": [],
      "payable": false,
      "stateMutability": "nonpayable",
      "type": "function"
    },
    {
      "constant": false,
      "inputs": [
        {
          "name": "_secret",
          "type": "string"
        }
      ],
      "name": "withdrawBid",
      "outputs": [],
      "payable": false,
      "stateMutability": "nonpayable",
      "type": "function"
    },
    {
      "constant": true,
      "inputs": [],
      "name": "getRemainingTime",
      "outputs": [
        {
          "name": "",
          "type": "uint256"
        }
      ],
      "payable": false,
      "stateMutability": "view",
      "type": "function"
    },
    {
      "constant": true,
      "inputs": [],
      "name": "getLifespan",
      "outputs": [
        {
          "name": "",
          "type": "uint8"
        }
      ],
      "payable": false,
      "stateMutability": "view",
      "type": "function"
    },
    {
      "constant": true,
      "inputs": [],
      "name": "hasEnded",
      "outputs": [
        {
          "name": "",
          "type": "bool"
        }
      ],
      "payable": false,
      "stateMutability": "view",
      "type": "function"
    },
    {
      "constant": true,
      "inputs": [],
      "name": "isTerminated",
      "outputs": [
        {
          "name": "",
          "type": "bool"
        }
      ],
      "payable": false,
      "stateMutability": "view",
      "type": "function"
    },
    {
      "constant": true,
      "inputs": [],
      "name": "getItemName",
      "outputs": [
        {
          "name": "",
          "type": "string"
        }
      ],
      "payable": false,
      "stateMutability": "view",
      "type": "function"
    },
    {
      "constant": true,
      "inputs": [],
      "name": "getDescription",
      "outputs": [
        {
          "name": "",
          "type": "string"
        }
      ],
      "payable": false,
      "stateMutability": "view",
      "type": "function"
    },
    {
      "constant": true,
      "inputs": [],
      "name": "getPrice",
      "outputs": [
        {
          "name": "",
          "type": "uint256"
        }
      ],
      "payable": false,
      "stateMutability": "view",
      "type": "function"
    },
    {
      "constant": true,
      "inputs": [],
      "name": "getThumbnailURL",
      "outputs": [
        {
          "name": "",
          "type": "string"
        }
      ],
      "payable": false,
      "stateMutability": "view",
      "type": "function"
    }
  ],
  "bytecode": "0x60606040526000600a60006101000a81548160ff021916908315150217905550604051620012d9380380620012d983398101604052808051906020019091908051820191906020018051820191906020018051820191906020018051906020019091908051906020019091905050603260ff1685511015156200008157600080fd5b61040061ffff1684511015156200009757600080fd5b813410151515620000a757600080fd5b66038d7ea4c680008210151515620000be57600080fd5b60018160ff161480620000d4575060038160ff16145b80620000e3575060078160ff16145b1515620000ef57600080fd5b7f94691643420f7bd1f64b04fd526c0a22fb6bce5a00c8d605cd7c5b56c2709e00334283604051808473ffffffffffffffffffffffffffffffffffffffff1673ffffffffffffffffffffffffffffffffffffffff1681526020018381526020018260ff1660ff168152602001935050505060405180910390a184600460000190805190602001906200018392919062000234565b5083600460010190805190602001906200019f92919062000234565b50816004600301819055508260046002019080519060200190620001c592919062000234565b50856000806101000a81548173ffffffffffffffffffffffffffffffffffffffff021916908373ffffffffffffffffffffffffffffffffffffffff1602179055504260098190555080600860006101000a81548160ff021916908360ff160217905550505050505050620002e3565b828054600181600116156101000203166002900490600052602060002090601f016020900481019282601f106200027757805160ff1916838001178555620002a8565b82800160010185558215620002a8579182015b82811115620002a75782518255916020019190600101906200028a565b5b509050620002b79190620002bb565b5090565b620002e091905b80821115620002dc576000816000905550600101620002c2565b5090565b90565b610fe680620002f36000396000f3006060604052600436106100db576000357c0100000000000000000000000000000000000000000000000000000000900463ffffffff16806301671ac5146100dd5780630c08bf881461016b5780630e8d36b8146101805780631998aeef146101fc5780631a092541146102065780632ef9a1601461029457806340e19c1f146102c35780639201ea0a146102f257806398d5fdca146103235780639e25249e1461034c578063b80777ea146103a9578063c819d85a146103d2578063d1cc997614610460578063ecb70fb71461048d578063efb98bcf146104ba575b005b34156100e857600080fd5b6100f06104e3565b6040518080602001828103825283818151815260200191508051906020019080838360005b83811015610130578082015181840152602081019050610115565b50505050905090810190601f16801561015d5780820380516001836020036101000a031916815260200191505b509250505060405180910390f35b341561017657600080fd5b61017e61058e565b005b341561018b57600080fd5b6101fa600480803573ffffffffffffffffffffffffffffffffffffffff1690602001909190803590602001908201803590602001908080601f01602080910402602001604051908101604052809392919081815260200183838082843782019150505050505091905050610658565b005b610204610832565b005b341561021157600080fd5b610219610a79565b6040518080602001828103825283818151815260200191508051906020019080838360005b8381101561025957808201518184015260208101905061023e565b50505050905090810190601f1680156102865780820380516001836020036101000a031916815260200191505b509250505060405180910390f35b341561029f57600080fd5b6102a7610b24565b604051808260ff1660ff16815260200191505060405180910390f35b34156102ce57600080fd5b6102d6610b29565b604051808260ff1660ff16815260200191505060405180910390f35b34156102fd57600080fd5b610305610b40565b604051808261ffff1661ffff16815260200191505060405180910390f35b341561032e57600080fd5b610336610b46565b6040518082815260200191505060405180910390f35b341561035757600080fd5b6103a7600480803590602001908201803590602001908080601f01602080910402602001604051908101604052809392919081815260200183838082843782019150505050505091905050610b53565b005b34156103b457600080fd5b6103bc610e73565b6040518082815260200191505060405180910390f35b34156103dd57600080fd5b6103e5610e79565b6040518080602001828103825283818151815260200191508051906020019080838360005b8381101561042557808201518184015260208101905061040a565b50505050905090810190601f1680156104525780820380516001836020036101000a031916815260200191505b509250505060405180910390f35b341561046b57600080fd5b610473610f24565b604051808215151515815260200191505060405180910390f35b341561049857600080fd5b6104a0610f3b565b604051808215151515815260200191505060405180910390f35b34156104c557600080fd5b6104cd610f5c565b6040518082815260200191505060405180910390f35b6104eb610fa6565b60046002018054600181600116156101000203166002900480601f0160208091040260200160405190810160405280929190818152602001828054600181600116156101000203166002900480156105845780601f1061055957610100808354040283529160200191610584565b820191906000526020600020905b81548152906001019060200180831161056757829003601f168201915b5050505050905090565b600a60019054906101000a900473ffffffffffffffffffffffffffffffffffffffff1673ffffffffffffffffffffffffffffffffffffffff163373ffffffffffffffffffffffffffffffffffffffff161415156105ea57610656565b600a60009054906101000a900460ff1615151561060357fe5b7f9a9cad27a1bdce3d7cb0602aaf727dfaad03ba6524d9bca7b9615867fa6802b4426040518082815260200191505060405180910390a16001600a60006101000a81548160ff0219169083151502179055505b565b600a60009054906101000a900460ff1615151561067157fe5b8173ffffffffffffffffffffffffffffffffffffffff163373ffffffffffffffffffffffffffffffffffffffff161415156106ab57600080fd5b600160008373ffffffffffffffffffffffffffffffffffffffff1673ffffffffffffffffffffffffffffffffffffffff16815260200190815260200160002060009054906101000a900460ff1615151561070457600080fd5b60018060008473ffffffffffffffffffffffffffffffffffffffff1673ffffffffffffffffffffffffffffffffffffffff16815260200190815260200160002060006101000a81548160ff0219169083151502179055506002816000604051602001526040518082805190602001908083835b60208310151561079c5780518252602082019150602081019050602083039250610777565b6001836020036101000a03801982511681845116808217855250505050505090500191505060206040518083038160008661646e5a03f115156107de57600080fd5b505060405180519050600360008473ffffffffffffffffffffffffffffffffffffffff1673ffffffffffffffffffffffffffffffffffffffff16815260200190815260200160002081600019169055505050565b6000600a60009054906101000a900460ff1615151561084d57fe5b60003411151561085c57600080fd5b600c543411151561086c57600080fd5b6004600301543411151561087f57600080fd5b600260003373ffffffffffffffffffffffffffffffffffffffff1673ffffffffffffffffffffffffffffffffffffffff1681526020019081526020016000205434600260003373ffffffffffffffffffffffffffffffffffffffff1673ffffffffffffffffffffffffffffffffffffffff168152602001908152602001600020540111151561090d57600080fd5b600160003373ffffffffffffffffffffffffffffffffffffffff1673ffffffffffffffffffffffffffffffffffffffff16815260200190815260200160002060009054906101000a900460ff16151561096257fe5b42600860009054906101000a900460ff1660ff166009540110151561098357fe5b600260003373ffffffffffffffffffffffffffffffffffffffff1673ffffffffffffffffffffffffffffffffffffffff168152602001908152602001600020549050348101600260003373ffffffffffffffffffffffffffffffffffffffff1673ffffffffffffffffffffffffffffffffffffffff168152602001908152602001600020819055507fcd8b2bc1831cfb063d9dfd4e5676b014e4f9d34756613a8e120013a9922403ab3334604051808373ffffffffffffffffffffffffffffffffffffffff1673ffffffffffffffffffffffffffffffffffffffff1681526020018281526020019250505060405180910390a150565b610a81610fa6565b60046001018054600181600116156101000203166002900480601f016020809104026020016040519081016040528092919081815260200182805460018160011615610100020316600290048015610b1a5780601f10610aef57610100808354040283529160200191610b1a565b820191906000526020600020905b815481529060010190602001808311610afd57829003601f168201915b5050505050905090565b603281565b6000600860009054906101000a900460ff16905090565b61040081565b6000600460030154905090565b600081600160003373ffffffffffffffffffffffffffffffffffffffff1673ffffffffffffffffffffffffffffffffffffffff16815260200190815260200160002060009054906101000a900460ff161515610bae57600080fd5b600360003373ffffffffffffffffffffffffffffffffffffffff1673ffffffffffffffffffffffffffffffffffffffff16815260200190815260200160002054600019166002826000604051602001526040518082805190602001908083835b602083101515610c335780518252602082019150602081019050602083039250610c0e565b6001836020036101000a03801982511681845116808217855250505050505090500191505060206040518083038160008661646e5a03f11515610c7557600080fd5b50506040518051905060001916141515610c8e57600080fd5b600b60009054906101000a900473ffffffffffffffffffffffffffffffffffffffff1673ffffffffffffffffffffffffffffffffffffffff163373ffffffffffffffffffffffffffffffffffffffff1614151515610ceb57600080fd5b6000600260003373ffffffffffffffffffffffffffffffffffffffff1673ffffffffffffffffffffffffffffffffffffffff16815260200190815260200160002054111515610d3957600080fd5b600260003373ffffffffffffffffffffffffffffffffffffffff1673ffffffffffffffffffffffffffffffffffffffff1681526020019081526020016000205491506000600260003373ffffffffffffffffffffffffffffffffffffffff1673ffffffffffffffffffffffffffffffffffffffff16815260200190815260200160002081905550813073ffffffffffffffffffffffffffffffffffffffff163110151515610de357fe5b6000600260003373ffffffffffffffffffffffffffffffffffffffff1673ffffffffffffffffffffffffffffffffffffffff16815260200190815260200160002054141515610e2e57fe5b3373ffffffffffffffffffffffffffffffffffffffff166108fc839081150290604051600060405180830381858888f193505050501515610e6e57600080fd5b505050565b60095481565b610e81610fa6565b60046000018054600181600116156101000203166002900480601f016020809104026020016040519081016040528092919081815260200182805460018160011615610100020316600290048015610f1a5780601f10610eef57610100808354040283529160200191610f1a565b820191906000526020600020905b815481529060010190602001808311610efd57829003601f168201915b5050505050905090565b6000600a60009054906101000a900460ff16905090565b600042600860009054906101000a900460ff1660ff16600954011015905090565b6000600a60009054906101000a900460ff16151515610f7757fe5b610f7f610f3b565b151515610f8857fe5b600860009054906101000a900460ff1660ff16600954014203905090565b6020604051908101604052806000815250905600a165627a7a7230582028b41c84b96a15280b1f3c13d96b4d84c334a2d9a49e7e671ccd7031c3c480a20029",
  "source": "pragma solidity ^0.4.18;\r\n\r\n\r\nimport \"./interfaces/TimeLocked.sol\";\r\nimport \"./bases/HashLocked.sol\";\r\nimport \"./Auctioner.sol\";\r\n\r\n\r\n/// Auction smart contract is a contract which represents an auction\r\n/// for single or multiple items at once. It is a Temporary contract\r\n/// which means it has a lifespan. The larger the timespan, the bigger\r\n/// commission we get. If the Auction is terminated, the first one \r\n/// who gets paid is the auctioner (flat rate) users can withdraw\r\n/// their funds back and if that doesn't happen in period of a week\r\n/// all the funds go to the owner of the contract (the seller) and \r\n/// all users users are scrwd. \r\n/// @dev Temporary.sol\r\ncontract Auction is TimeLocked, HashLocked {\r\n\r\n    Auctioner private auctioner;\r\n\r\n    /// The auction starts \r\n    event Start(address initiator, uint256 timestamp, uint8 span);\r\n    event End(address winner, uint256 timestamp);\r\n    event Bidding(address bidder, uint256 amount);\r\n    // The auction can be terminated and as such has to notify\r\n    event Terminated(uint256 timestamp);\r\n\r\n    modifier ownerOnly() {\r\n        if (msg.sender != owner) {\r\n            return;\r\n        }\r\n        _;\r\n    }\r\n\r\n    modifier authorizedBidderOnly(string _secret) {\r\n        require(bidders[msg.sender]);\r\n        require(sha256(_secret) == secrets[msg.sender]);\r\n        _;\r\n    }\r\n\r\n    modifier ifActive() {\r\n        assert(!terminated);\r\n        _;\r\n    }\r\n\r\n    /// The MaximumDescriptionLength you are allowed to have on an item\r\n    uint16 public constant MAX_DESCRIPTION_LENGTH = 1024;\r\n    /// The MaximumCharactersInYourTitle\r\n    uint8 public constant MAX_TITLE_LENGTH = 50;\r\n    /// The default flat comission charged on termination (around 0.001 ether or 0.6 USD A.T.M)\r\n    uint256 private constant DEFAULT_FLAT_COMISSION = 1000 szabo;\r\n\r\n    /// Authorized bidders\r\n    mapping ( address => bool ) private bidders;\r\n    \r\n    /// The actual bids ( amount )\r\n    mapping ( address => uint256 ) private bids;\r\n\r\n    /// Bidders' secret words (required for successfull change of item ownership);\r\n    /// After the auction ends the winning bidder sends his secret after receiving\r\n    /// the item, so the seller can withdraw his bid successfully\r\n    mapping ( address => bytes32) private secrets;\r\n\r\n    /// AuctionItem struct provides way to store different auction items\r\n    struct AuctionItem {\r\n\r\n        string itemName;\r\n        string description;\r\n        string thumbnailURL;\r\n\r\n        uint256 startPrice;\r\n\r\n    }\r\n\r\n    /// The actual item you are selling\r\n    AuctionItem private item;\r\n\r\n    /// The timespan of the contract (comission is based on this timespan)\r\n    uint8 private span;\r\n    uint256 public timestamp;\r\n\r\n    /// Is the contract terminated\r\n    bool private terminated = false;\r\n\r\n    /// The owner of the contract ( the seller )\r\n    address private owner;\r\n    \r\n    /// The address which the current maximum bid was sent from\r\n    address private currentMaxBidderAddress;\r\n\r\n    /// Current maximum bid\r\n    uint256 private maximumBid;\r\n\r\n    /// Auction constructor which initializes the contract\r\n    /// @param _auctioner - The auctioner contract that receives the comission\r\n    /// @param _title - The title/name of the item\r\n    /// @param _description - The description of the item you are selling\r\n    /// @param _thumbnailURL - The thumbnail of your offer\r\n    /// @param _startPrice - The initial price of your offer\r\n    /// @param _timespan - The time-span of your auction (1 day, 3 days, 7 days)\r\n    /// Upon auction creation you have to deposit a {_startPrice} amount in your\r\n    /// contract in case you terminate or have to pay comission (no money in the contract -> no comission)\r\n    /// The _startPrice cannot be less than the flat comission you are charged upon termination\r\n    function Auction(\r\n                    Auctioner _auctioner,\r\n                    string _title, \r\n                    string _description, \r\n                    string _thumbnailURL, \r\n                    uint256 _startPrice,\r\n                    uint8 _timespan\r\n                    )\r\n        public\r\n        payable\r\n    {\r\n        /// Setting the owner of the contract\r\n        require(bytes(_title).length < MAX_TITLE_LENGTH);\r\n        require(bytes(_description).length < MAX_DESCRIPTION_LENGTH);\r\n        require(msg.value >= _startPrice);\r\n        require(_startPrice >= DEFAULT_FLAT_COMISSION);\r\n        require(_timespan == 1 || _timespan == 3 || _timespan == 7);\r\n\r\n        Start(msg.sender, now, _timespan);\r\n\r\n        /// Populating the Auction item structure\r\n        item.itemName = _title;\r\n        item.description = _description;\r\n        item.startPrice = _startPrice;\r\n        item.thumbnailURL = _thumbnailURL;\r\n        \r\n        /// Defining the auctioneer (the comission is sent to the contract)\r\n        auctioner = _auctioner;\r\n        timestamp = now;\r\n        span = _timespan;\r\n    }\r\n\r\n    /// If everything else fails (fallback)\r\n    function() public payable {}\r\n\r\n    /// The bid function is used for bids on the current Auction Contract Item\r\n    /// You can bids only if you are a registered bidder\r\n    /// Multiple assertions are made in order for the process to run smoothly without error\r\n    /// At the end an Event is Fired @dev event Bidding(address sender, uin256 value)\r\n    function bid() \r\n        public \r\n        payable\r\n        ifActive\r\n    {\r\n\r\n        require(msg.value > 0);\r\n        require(msg.value > maximumBid);\r\n        require(msg.value > item.startPrice);\r\n        require(bids[msg.sender] + msg.value > bids[msg.sender]);\r\n\r\n        assert(bidders[msg.sender]);\r\n        assert(timestamp + span < now);\r\n\r\n        uint256 oldBid = bids[msg.sender];\r\n        bids[msg.sender] = oldBid + msg.value;\r\n        Bidding(msg.sender, msg.value);\r\n    }\r\n\r\n    /// Terminate initiates a time lock on the contract and the auctioner\r\n    /// receives an instant payment (flat rate) before anyone else.\r\n    /// No one can bid, they can only withdraw funds (if they have bids)\r\n    /// At the end of the termination period all funds go to the owner\r\n    function terminate() \r\n        public \r\n        ownerOnly \r\n    {  \r\n        assert(!terminated);\r\n        Terminated(now);\r\n        terminated = true;\r\n    }\r\n\r\n    function allowBidder(address _addr, string _secret) public ifActive {\r\n        require(msg.sender == _addr);\r\n        require(!bidders[_addr]);\r\n        bidders[_addr] = true;\r\n        secrets[_addr] = sha256(_secret);\r\n    }\r\n\r\n    function withdrawBid(string _secret) public authorizedBidderOnly(_secret) {\r\n        require(msg.sender != currentMaxBidderAddress);\r\n        require(bids[msg.sender] > 0);\r\n        uint256 amountToSend = bids[msg.sender];\r\n        bids[msg.sender] = 0;\r\n        assert(this.balance >= amountToSend);\r\n        assert(bids[msg.sender] == 0);\r\n        msg.sender.transfer(amountToSend);\r\n    }\r\n\r\n    function getRemainingTime() public view ifActive returns (uint256) {\r\n        assert(!hasEnded());\r\n        return now - (timestamp + span);\r\n    }\r\n\r\n    function getLifespan() public view returns (uint8) {\r\n        return span;\r\n    }\r\n\r\n    function hasEnded() public view returns (bool) {\r\n        return timestamp + span >= now;\r\n    }\r\n\r\n    function isTerminated() public view returns (bool) {\r\n        return terminated;\r\n    }\r\n\r\n    function getItemName() public view returns (string) {\r\n        return item.itemName;\r\n    }\r\n\r\n    function getDescription() public view returns (string) {\r\n        return item.description;\r\n    }\r\n \r\n    function getPrice() public view returns (uint256) {\r\n        return item.startPrice;\r\n    }\r\n\r\n    function getThumbnailURL() public view returns (string) {\r\n        return item.thumbnailURL;\r\n    }\r\n\r\n}",
  "sourcePath": "C:\\Users\\G_ANGELOV\\Desktop\\Softuni\\blockchain-devcamp\\bogo-dapp-proj\\contracts\\Auction.sol",
  "compiler": {
    "name": "solc",
    "version": "0.4.19+commit.c4cbbb05.Emscripten.clang"
  },
  "schemaVersion": "1.0.1",
  "updatedAt": "2018-03-17T14:20:17.706Z"
}