{
  "contractName": "Auctioner",
  "abi": [
    {
      "inputs": [],
      "payable": false,
      "stateMutability": "nonpayable",
      "type": "constructor"
    },
    {
      "payable": true,
      "stateMutability": "payable",
      "type": "fallback"
    },
    {
      "anonymous": false,
      "inputs": [
        {
          "indexed": false,
          "name": "",
          "type": "address"
        },
        {
          "indexed": false,
          "name": "",
          "type": "uint256"
        }
      ],
      "name": "PayedComission",
      "type": "event"
    },
    {
      "constant": false,
      "inputs": [],
      "name": "withdrawComission",
      "outputs": [],
      "payable": false,
      "stateMutability": "nonpayable",
      "type": "function"
    }
  ],
  "bytecode": "0x6060604052341561000f57600080fd5b336000806101000a81548173ffffffffffffffffffffffffffffffffffffffff021916908373ffffffffffffffffffffffffffffffffffffffff1602179055506101ea8061005e6000396000f300606060405260043610610041576000357c0100000000000000000000000000000000000000000000000000000000900463ffffffff1680634c62a644146100ae575b7fb89ba7afd6977930933c3b842b43dd243387e2d3a0b3eca583896e5f017ba8c63342604051808373ffffffffffffffffffffffffffffffffffffffff1673ffffffffffffffffffffffffffffffffffffffff1681526020018281526020019250505060405180910390a1005b34156100b957600080fd5b6100c16100c3565b005b6000809054906101000a900473ffffffffffffffffffffffffffffffffffffffff1673ffffffffffffffffffffffffffffffffffffffff163373ffffffffffffffffffffffffffffffffffffffff1614151561011e57600080fd5b60003073ffffffffffffffffffffffffffffffffffffffff163111151561014457600080fd5b6000809054906101000a900473ffffffffffffffffffffffffffffffffffffffff1673ffffffffffffffffffffffffffffffffffffffff166108fc3073ffffffffffffffffffffffffffffffffffffffff16319081150290604051600060405180830381858888f1935050505015156101bc57600080fd5b5600a165627a7a723058208f19663e9e284cffe53715dc631ee8591d2ca43c21628d9034510b00a8a1a6e50029",
  "source": "pragma solidity ^0.4.18;\r\n\r\n\r\n/**\r\n *\r\n * The auctioner contract is the contract that receives all the\r\n * comissions, so they can later be claimed by the real auctioner.\r\n * It gets passed to every Auction contract, so it gets payed every time\r\n * one is terminated or successfull\r\n */\r\ncontract Auctioner {\r\n\r\n    modifier ownerOnly() {\r\n        require(msg.sender == owner);\r\n        _;\r\n    }\r\n\r\n    event PayedComission(address, uint256);\r\n\r\n    address private owner;\r\n\r\n    function Auctioner() public {\r\n        owner = msg.sender;\r\n    }\r\n\r\n    function() public payable {\r\n        PayedComission(msg.sender, now);\r\n    }\r\n\r\n    function withdrawComission() public ownerOnly {\r\n        require(this.balance > 0);\r\n        owner.transfer(this.balance);\r\n    }\r\n\r\n}",
  "sourcePath": "C:\\Users\\G_ANGELOV\\Desktop\\Softuni\\blockchain-devcamp\\bogo-dapp-proj\\contracts\\Auctioner.sol",
  "compiler": {
    "name": "solc",
    "version": "0.4.19+commit.c4cbbb05.Emscripten.clang"
  },
  "schemaVersion": "1.0.1",
  "updatedAt": "2018-03-18T16:57:20.567Z"
}