{
  "contractName": "Auctioner",
  "abi": [
    {
      "constant": true,
      "inputs": [],
      "name": "owner",
      "outputs": [
        {
          "name": "",
          "type": "address"
        }
      ],
      "payable": false,
      "stateMutability": "view",
      "type": "function"
    },
    {
      "inputs": [],
      "payable": false,
      "stateMutability": "nonpayable",
      "type": "constructor"
    },
    {
      "payable": true,
      "stateMutability": "payable",
      "type": "fallback"
    },
    {
      "anonymous": false,
      "inputs": [
        {
          "indexed": false,
          "name": "",
          "type": "address"
        },
        {
          "indexed": false,
          "name": "",
          "type": "uint256"
        }
      ],
      "name": "PayedComission",
      "type": "event"
    },
    {
      "constant": false,
      "inputs": [],
      "name": "withdrawComissions",
      "outputs": [],
      "payable": false,
      "stateMutability": "nonpayable",
      "type": "function"
    }
  ],
  "bytecode": "0x6060604052341561000f57600080fd5b336000806101000a81548173ffffffffffffffffffffffffffffffffffffffff021916908373ffffffffffffffffffffffffffffffffffffffff16021790555061026f8061005e6000396000f30060606040526004361061004c576000357c0100000000000000000000000000000000000000000000000000000000900463ffffffff1680638da5cb5b146100b9578063911e9b591461010e575b7fb89ba7afd6977930933c3b842b43dd243387e2d3a0b3eca583896e5f017ba8c63342604051808373ffffffffffffffffffffffffffffffffffffffff1673ffffffffffffffffffffffffffffffffffffffff1681526020018281526020019250505060405180910390a1005b34156100c457600080fd5b6100cc610123565b604051808273ffffffffffffffffffffffffffffffffffffffff1673ffffffffffffffffffffffffffffffffffffffff16815260200191505060405180910390f35b341561011957600080fd5b610121610148565b005b6000809054906101000a900473ffffffffffffffffffffffffffffffffffffffff1681565b6000809054906101000a900473ffffffffffffffffffffffffffffffffffffffff1673ffffffffffffffffffffffffffffffffffffffff163373ffffffffffffffffffffffffffffffffffffffff161415156101a357600080fd5b60003073ffffffffffffffffffffffffffffffffffffffff16311115156101c957600080fd5b6000809054906101000a900473ffffffffffffffffffffffffffffffffffffffff1673ffffffffffffffffffffffffffffffffffffffff166108fc3073ffffffffffffffffffffffffffffffffffffffff16319081150290604051600060405180830381858888f19350505050151561024157600080fd5b5600a165627a7a72305820e43fa34d2741364de3ed85cf742c3e35cca90b405c0d0a2410398f199ffaaefa0029",
  "source": "pragma solidity ^0.4.18;\r\n\r\n\r\n/**\r\n *\r\n * The auctioner contract is the contract that receives all the\r\n * comissions, so they can later be claimed by the real auctioner.\r\n * It gets passed to every Auction contract, so it gets payed every time\r\n * one is terminated or successfull\r\n */\r\ncontract Auctioner {\r\n\r\n    modifier ownerOnly() {\r\n        require(msg.sender == owner);\r\n        _;\r\n    }\r\n\r\n    event PayedComission(address, uint256);\r\n\r\n    address public owner;\r\n\r\n    function Auctioner() public {\r\n        owner = msg.sender;\r\n    }\r\n\r\n    function() public payable {\r\n        PayedComission(msg.sender, now);\r\n    }\r\n\r\n    function withdrawComissions() public ownerOnly {\r\n        require(this.balance > 0);\r\n        owner.transfer(this.balance);\r\n    }\r\n\r\n}",
  "sourcePath": "C:\\Users\\G_ANGELOV\\Desktop\\Softuni\\blockchain-devcamp\\bogo-dapp-proj\\contracts\\Auctioner.sol",
  "compiler": {
    "name": "solc",
    "version": "0.4.19+commit.c4cbbb05.Emscripten.clang"
  },
  "schemaVersion": "1.0.1",
  "updatedAt": "2018-03-19T17:41:25.896Z"
}